:100000000C9463000C948B000C948B000C948B006C
:100010000C948B000C948B000C948B000C948B0034
:100020000C948B000C948B000C948B000C948B0024
:100030000C948B000C948B000C948B000C948B0014
:100040000C94CB060C948B000C9499060C947306BC
:100050000C948B000C948B000C948B000C948B00F4
:100060000C9415070C948B0000000000250028005C
:100070002B00040404040404040402020202020229
:10008000030303030303010204081020408001025C
:1000900004081020010204081020000000080002DB
:1000A00001000003040700000000000000003233DC
:1000B0003A32313A343400417072203137203230D4
:1000C00032320000410811241FBECFEFD8E0DEBF5E
:1000D000CDBF22E0A4E6B1E001C01D92A23EB2076E
:1000E000E1F711E0A0E0B1E0ECE7F9E102C0059032
:1000F0000D92A436B107D9F710E0C3E6D0E004C0F2
:100100002197FE010E94910BC236D107C9F70E94C8
:1001100089080C94BC0C0C94000008950895AF92CB
:10012000BF92CF92DF92EF92FF920F931F93CF93E4
:10013000DF936C017B018B01040F151FEB015E0146
:10014000AE18BF08C017D10759F06991D601ED91DB
:10015000FC910190F081E02DC6010995892B79F77A
:10016000C501DF91CF911F910F91FF90EF90DF902C
:10017000CF90BF90AF900895FC01538D448D252FF3
:1001800030E0842F90E0821B930B541710F0CF9631
:10019000089501970895FC01918D828D981761F063
:1001A000A28DAE0FBF2FB11D5D968C91928D9F5F7A
:1001B0009F73928F90E008958FEF9FEF0895FC0159
:1001C000918D828D981731F0828DE80FF11D858D0C
:1001D00090E008958FEF9FEF0895FC01918D228D9F
:1001E000892F90E0805C9F4F821B91098F73992724
:1001F000089589E292E00E94ED0021E0892B09F444
:1002000020E0822F089580E090E0892B29F00E9461
:10021000F90081110C9400000895FC01A48DA80F31
:10022000B92FB11DA35ABF4F2C91848D90E0019638
:100230008F739927848FA689B7892C93A089B18958
:100240008C91837080648C93938D848D981306C0F9
:100250000288F389E02D80818F7D80830895EF925D
:10026000FF920F931F93CF93DF93EC0181E0888F70
:100270009B8D8C8D98131AC0E889F989808185FF40
:1002800015C09FB7F894EE89FF896083E889F989E2
:1002900080818370806480839FBF81E090E0DF91E4
:1002A000CF911F910F91FF90EF900895F62E0B8D37
:1002B00010E00F5F1F4F0F731127E02E8C8D8E11F2
:1002C0000CC00FB607FCFACFE889F989808185FF59
:1002D000F5CFCE010E940D01F1CFEB8DEC0FFD2F7C
:1002E000F11DE35AFF4FF0829FB7F8940B8FEA8914
:1002F000FB8980818062CFCFCF93DF93EC01888D23
:100300008823B9F0AA89BB89E889F9898C9185FD90
:1003100003C0808186FD0DC00FB607FCF7CF8C911E
:1003200085FFF2CF808185FFEDCFCE010E940D01C8
:10033000E9CFDF91CF91089590E0FC01E656FF4FA1
:100340002491FC01EA57FF4F3491FC01EE58FF4F16
:10035000E491EE23C9F0222339F0233001F1A8F40F
:10036000213019F1223029F1F0E0EE0FFF1FE8599A
:10037000FF4FA591B4918FB7F894EC91611126C00D
:1003800030953E233C938FBF08952730A9F0283045
:10039000C9F0243049F7809180008F7D03C080919F
:1003A00080008F7780938000DFCF84B58F7784BD06
:1003B000DBCF84B58F7DFBCF8091B0008F778093AA
:1003C000B000D2CF8091B0008F7DF9CF3E2BDACF35
:1003D0003FB7F8948091AD019091AE01A091AF012B
:1003E000B091B00126B5A89B05C02F3F19F001962A
:1003F000A11DB11D3FBFBA2FA92F982F8827BC017F
:10040000CD01620F711D811D911D42E0660F771FA6
:10041000881F991F4A95D1F708958F929F92AF92A6
:10042000BF92CF92DF92EF92FF924B015C010E944C
:10043000E8016B017C010E94E8016C197D098E09BD
:100440009F09683E734081059105A8F321E0821A57
:100450009108A108B10888EEC80E83E0D81EE11CFF
:10046000F11C81149104A104B10429F7FF90EF90CD
:10047000DF90CF90BF90AF909F908F900895089598
:1004800020918501260F3327331F21323105ECF4EB
:100490002091FF01FC0190E080E0243069F082E0CF
:1004A0000895A09185012191AC014B595E4FA40F95
:1004B000B52FB11D2C930196861798F38091850175
:1004C000680F6093850180E0089581E0089510929F
:1004D000FF0181E08093FE011092D90161E082E189
:1004E0000E949C0161E083E10E949C01E9EBF0E045
:1004F00080818E7F808380818D7F808388E480935C
:10050000B80085E48093BC0008951092B801109261
:10051000B70110920602109228020E9467028DE82D
:1005200090E09093B6018093B5018EE890E09093AF
:10053000B4018093B3010895CF93DF9391E090933A
:1005400064018823B9F0C091B800D091BA008091BD
:10055000BC008A7B8093BC0060E082E10E949C0129
:1005600060E083E10E949C010E946702D093BA0080
:10057000C093B800DF91CF9108958F929F92AF9270
:10058000BF92CF92DF92EF92FF920F931F93CF9380
:10059000DF93D0912802D13208F0D7C0182FC09134
:1005A00027020E94E8016B017C018091FF0181110B
:1005B0006BC082E08093FF011093FE018FEF809368
:1005C000FD011092FC01D093FB01A7E0B2E0EBED3E
:1005D000F1E080E0D81391C01092DA018091DA0145
:1005E000CC0FC82BC093DA018091D901813009F07A
:1005F00088C01092D9010E94E8016B017C018091B2
:10060000DA018093BB008091010290910202A091D7
:100610000302B0910402892B8A2B8B2BA1F00E943C
:10062000E801009101021091020220910302309131
:1006300004026C197D098E099F0906171707280700
:10064000390708F442C08091BC0083FDD8CF85EC07
:100650008093BC000E94E8016B017C018091FF0146
:10066000823009F450C08091FD018F3F09F46FC0C2
:100670008091FD01803209F46CC08091FD018033CE
:1006800009F469C084E026C08091010290910202C1
:10069000A0910302B0910402892B8A2B8B2B09F4C1
:1006A00084CF0E94E8018090010290900202A09005
:1006B0000302B09004026C197D098E099F09861609
:1006C0009706A806B90608F070CF809100020E9434
:1006D0009C0285E0109206021092280210920502F8
:1006E000DF91CF911F910F91FF90EF90DF90CF900E
:1006F000BF90AF909F908F9008959D9191938F5F41
:1007000069CF85EEA5CF8091010290910202A09160
:100710000302B0910402892B8A2B8B2B09F49ECF04
:100720000E94E8010091010210910202209103024F
:10073000309104026C197D098E099F09061717076D
:100740002807390708F08ACFC0CF81E0C3CF80E007
:10075000C1CF82E0BFCF83E0BDCF1F93CF93DF93A4
:10076000EA01122FDC0111968D919C91DC01ED9133
:10077000FC910280F381E02D0995C817D90729F46F
:10078000812F0E94BD0291E0811190E0892FDF91BD
:10079000CF911F910895CF93DF93EC018B81882334
:1007A000A1F0888191E09093050280932702109236
:1007B00006021092280281E00E94BD0291E08111A0
:1007C00090E0892FDF91CF9108950E94850281E00A
:1007D0008B83CE010E94CB03982F8111E2CFF1CF02
:1007E0000895E091B8018091B701E81730F4F0E086
:1007F000E754FE4F808190E008958FEF9FEF0895BA
:100800009091B8018091B7012FEF3FEF981748F40E
:10081000E92FF0E0E754FE4F208130E09F5F909396
:10082000B801C90108958091B7019091B801891B61
:10083000990B0895CF92DF92EF92FF920F931F933F
:10084000CF93DF937C01CB018A0120910502222303
:1008500089F0EB016B01C40ED51ECC15DD0569F0E6
:100860006991D701ED91FC910190F081E02DC701D4
:100870000995F3CF642F0E944002C801DF91CF9108
:100880001F910F91FF90EF90DF90CF900895CF933D
:10089000DF931F92CDB7DEB7698320910502222333
:1008A000F9F020912802203258F021E030E0FC01DC
:1008B0003383228390E080E00F90DF91CF91089501
:1008C00080910602E82FF0E0E95FFD4F9981908367
:1008D0008F5F809306028093280281E090E0ECCF46
:1008E00061E0CE0101960E944002F7CFFC01248115
:1008F00031E03093050220932702109206021092F5
:1009000028028385682B86EC92E00E94470481E0F0
:100910000C94BD0290E080E008952F923F924F9298
:100920005F926F927F928F929F92AF92BF92CF927F
:10093000DF92EF92FF920F931F93CF93DF935C01AF
:100940001B016A01F12CE12CD50114968D919C912B
:1009500086010E191F098017910708F48C01F50113
:10096000D0810E94E8012B013C018091FF0181119F
:1009700072C0C02F013208F0C0E2F1E0F093FF0135
:1009800021E0C601801B910BE816F90608F420E06F
:100990002093FE018FEF8093FD011092FC018C0FDC
:1009A0008093FB01A1E0A093DA018091DA01DD0FD1
:1009B000D82BD093DA018091D901813009F090C011
:1009C0001092D9010E94E8012B013C018091DA01CB
:1009D0008093BB008091010290910202A0910302DA
:1009E000B0910402892B8A2B8B2BA1F00E94E80185
:1009F00020910102309102024091030250910402C1
:100A00006419750986099709261737074807590792
:100A100008F442C08091BC0083FDD8CFB5ECB09300
:100A2000BC000E94E8012B013C018091FF01813054
:100A300009F45AC08091FC018C1710F4C091FC019C
:100A4000ABEDB1E0E9EBF1E080E08C1751F19D9165
:100A500091938F5FFACF8091010290910202A09151
:100A60000302B0910402892B8A2B8B2B09F47DCFD2
:100A70000E94E8012091010230910202409103029C
:100A800050910402641975098609970926173707DA
:100A90004807590708F069CF809100020E949C0224
:100AA000C0E01092B801C093B701C017110609F059
:100AB00057C041018E0C9F1CE401CE018819990991
:100AC0008017910798F5D50111968D919C91DC01C5
:100AD000ED91FC910284F385E02D09958993EDCF8A
:100AE000E5EEE093BC009DCF80910102909102025F
:100AF000A0910302B0910402892B8A2B8B2B09F45D
:100B000094CF0E94E80120910102309102024091AD
:100B10000302509104026419750986099709261782
:100B200037074807590708F080CFB6CFE00EF11E0F
:100B3000EC14FD0408F408CF81E0DF91CF911F9100
:100B40000F91FF90EF90DF90CF90BF90AF909F906C
:100B50008F907F906F905F904F903F902F9008956F
:100B600080E0EBCF0F931F93CF938C01C62F0E9491
:100B700076046C2F6460C8010E9476046C2F6B7F32
:100B8000C8010E94760483EC90E00197F1F7CF91C1
:100B90001F910F9108950F931F93CF93DF938C01B3
:100BA000D62FC42F607F642B0E94B20580E1D89FAE
:100BB000B00111246C2BC801DF91CF911F910F91CF
:100BC0000C94B20541E00E94CB0581E090E00895CD
:100BD000FB0101900020E9F73197AF01461B570B4D
:100BE000DC01ED91FC910280F381E02D0994CF921C
:100BF000DF92EF92FF920F931F93CF93DF93CDB7C6
:100C0000DEB7A1970FB6F894DEBF0FBECDBF282F79
:100C100030E050E040E019A28E010F5D1F4F8AE0E6
:100C2000C82ED12CE12CF12CCA01B901A7019601E3
:100C30000E946F0B605DF80162938F0121153105F1
:100C40004105510589F790E080E0309729F0BF0118
:100C500082ED92E00E94E805A1960FB6F894DEBFFF
:100C60000FBECDBFDF91CF911F910F91FF90EF90FD
:100C7000DF90CF90089585ED8093BC0080910102B4
:100C800090910202A0910302B09104020796A11D67
:100C9000B11D23E0B695A795979587952A95D1F72D
:100CA0002091BC0024FD03C01092FF0108954091E3
:100CB0000102509102026091030270910402452BDF
:100CC000462B472B69F30097A105B10541F025E3B9
:100CD0002A95F1F700000197A109B109E1CF8091B0
:100CE00000020C949C021F920F920FB60F921124D7
:100CF0002F933F934F935F936F937F938F939F9324
:100D0000AF93BF93EF93FF9389E292E00E940D01AE
:100D1000FF91EF91BF91AF919F918F917F916F91D3
:100D20005F914F913F912F910F900FBE0F901F90A9
:100D300018951F920F920FB60F9211242F938F9335
:100D40009F93EF93FF93E0913902F0913A028081F3
:100D5000E0913F02F091400282FD1BC090818091A2
:100D600042028F5F8F7320914302821741F0E0911E
:100D70004202F0E0E75DFD4F958F80934202FF91C4
:100D8000EF919F918F912F910F900FBE0F901F9019
:100D900018958081F4CF1F920F920FB60F921124F5
:100DA0002F933F938F939F93AF93BF938091A9010C
:100DB0009091AA01A091AB01B091AC013091A80132
:100DC00023E0230F2D3758F50196A11DB11D209367
:100DD000A8018093A9019093AA01A093AB01B093BD
:100DE000AC018091AD019091AE01A091AF01B091A5
:100DF000B0010196A11DB11D8093AD019093AE018C
:100E0000A093AF01B093B001BF91AF919F918F912B
:100E10003F912F910F900FBE0F901F90189526E8CD
:100E2000230F0296A11DB11DD2CF1F920F920FB6B4
:100E30000F9211242F933F934F935F936F937F9360
:100E40008F939F93AF93BF93EF93FF938091B900DC
:100E5000887F803609F44AC0F0F5883209F4A7C0CB
:100E600018F5803109F49BC0B8F4882309F4F9C05F
:100E7000883009F494C0FF91EF91BF91AF919F9199
:100E80008F917F916F915F914F913F912F910F9033
:100E90000FBE0F901F901895883109F488C08032DA
:100EA00051F78093FD0114C0803409F49DC040F4D3
:100EB0008033B9F38833F9F68093FD0185ECB0C037
:100EC000803509F485C0883509F496C0883499F6D0
:100ED0000E943B06D0CF883909F48CC038F588379A
:100EE00029F050F4883611F0803729F683E080939A
:100EF000FF011092A70157C0883809F47BC08039E0
:100F000019F0803809F0B7CF8091A701803208F03E
:100F100071C0E091A70181E08E0F8093A7018091BD
:100F2000BB00F0E0E957FE4F80833DC0803B39F0C5
:100F3000E0F4803A09F479C0883A09F09CCF84E063
:100F40008093FF011092860110928501E091B50116
:100F5000F091B60109958091850181110FC081E062
:100F6000809385011092650109C0803C09F4A6CFE9
:100F7000883C09F4A3CF883B09F07DCFE09186013E
:100F800081E08E0F80938601F0E0EB59FE4F808167
:100F90008093BB00909186018091850129C080914A
:100FA000DA018093BB0085EC8093BC0064CF909104
:100FB000FC018091FB01981758F5E091FC0181E05C
:100FC0008E0F8093FC01F0E0E552FE4F8081E9CF67
:100FD000E091FC0181E08E0F8093FC018091BB00C9
:100FE000F0E0E552FE4F80839091FC018091FB017F
:100FF0009817C8F285E8D8CFE091FC0181E08E0F08
:101000008093FC018091BB00F0E0E552FE4F8083AD
:101010008091FE0181115CCF81E08093D90184EA47
:101020008093BC001092FF0126CF85EC8093BC001A
:101030001092FF018091A701803230F4E091A70166
:10104000F0E0E957FE4F10826091A70170E0E09157
:10105000B301F091B40187E891E009951092A701DE
:101060000ACF1092FD0134CFFC01908190539A3049
:1010700008F090E0818180532AE0929F800D112436
:101080000895E9E2F2E01382128288EE93E0A0E094
:10109000B0E084839583A683B7832AE031E031836F
:1010A000208325EC30E03587248724EC30E0378737
:1010B000268720EC30E0318B208B21EC30E0338B25
:1010C000228B22EC30E0358B248B26EC30E0378B02
:1010D000268B118E128E138E148EE6ECF2E01382A4
:1010E000128284839583A683B7838CE191E09183F8
:1010F0008083E2EDF2E0138212828EE291E091832E
:10110000808387E2848380E1818782E082871386FF
:101110000895CF93DF93CDB7DEB72C970FB6F89431
:10112000DEBF0FBECDBF789484B5826084BD84B528
:10113000816084BD85B5826085BD85B5816085BDD2
:1011400080916E00816080936E001092810080918A
:101150008100826080938100809181008160809312
:101160008100809180008160809380008091B10037
:1011700084608093B1008091B00081608093B00062
:1011800080917A00846080937A0080917A008260F6
:1011900080937A0080917A00816080937A008091B8
:1011A0007A00806880937A001092C100E091390241
:1011B000F0913A0282E08083E0913502F0913602AC
:1011C0001082E0913702F09138028FEC8083109208
:1011D0004102E0913D02F0913E0286E08083E09181
:1011E0003B02F0913C02808180618083E0913B0270
:1011F000F0913C02808188608083E0913B02F09115
:101200003C02808180688083E0913B02F0913C0247
:1012100080818F7D80830E9485021092D702809109
:10122000DC02823018F098E09093D7028093DA02C3
:1012300062E370E080E090E00E940D026091DD02C8
:1012400082ED92E00E94760468EE73E080E090E028
:101250000E940D0260E382ED92E00E94B205FBE481
:10126000EF2EF6E4FF2EC7010197F1F760E382ED60
:1012700092E00E94B205C7010197F1F760E382EDA9
:1012800092E00E94B20583E592E00197F1F760E2F7
:1012900082ED92E00E94B2056091D702606240E068
:1012A00082ED92E00E94CB0584E08093D80240E07A
:1012B0006CE082ED92E00E94CB0540E061E082EDBF
:1012C00092E00E94CB05ABE3EA2EAFE1FA2EC70114
:1012D0000197F1F782E08093D90240E066E082ED69
:1012E00092E00E94CB0540E062E082ED92E00E9435
:1012F000CB05C7010197F1F788E08093DD0260E03C
:1013000082ED92E00E94760440E060E882ED92E097
:101310000E94CB058091B1019091B201009711F02C
:101320000E94330C86E090E00E94970B7C0188E6D7
:10133000F701808386EC92E092838183138280E2BE
:1013400090E095838483F092B201E092B1010E9413
:10135000850201E0F7010383C7010E94CB038823C4
:1013600009F466C01C868091B1019091B201FC0124
:1013700024813581232B89F020810093050220935D
:101380002702109206021092280221E041E050E06C
:10139000BE01645F7F4F0E94AD0341E050E0CE018B
:1013A00001967C01BC018091B1019091B2010E9433
:1013B0008D04898190E0880F892F881F990B892BD4
:1013C00009F4AFC066E371E089E292E00E94E805AB
:1013D0006EE571E089E292E00E94E8054BE050E0A2
:1013E00067EB70E0C7010E945A0BCE010A960E947B
:1013F0003408082FE981E154E33110F50E2E000C7A
:10140000FF0BEB5FF54F0C94910B360B200A200A73
:101410004A0B200A1F0A200A200A200A2A0B200A47
:10142000200A3D0B480B460B200A200A200A440BD9
:101430006AE070E080E090E00E940D02F9CF12E0D7
:10144000CE0105960E943408D82E48E050E06EEA9E
:1014500070E0C7010E945A0BC7010E943408C82ED1
:10146000CE0104960E943408B82ECE0107960E9441
:101470003408382F86E0F70111928A95E9F72AE0BF
:10148000832F622F0E94630B982F880F890F880F7C
:10149000830F8A838B2D0E94630B982F880F890FEF
:1014A000880F8B0D8B838C2D0E94630B982F880FD8
:1014B000890F880F8C0D8C838D2D0E94630B982FC4
:1014C000880F890F880F8D0D8E83812F0E94630BEB
:1014D000982F990F890F880F180F1F83802F0E9454
:1014E000630B982F880F890F880F800F8887809152
:1014F000B1019091B201FC01248135812830310580
:1015000080F0208131E03093050220932702109271
:1015100006021092280221E048E050E0B7010E9444
:10152000AD036BE3C62E6FE1D62E70E0A72E70E000
:10153000B72E9924939419820091B1011091B201B0
:10154000F80184819581892BC1F0808190920502F8
:1015500080932702109206021092280220E041E0B8
:1015600050E0B701C8010E94AD03882331F047E085
:1015700050E0B701C8010E948D0429812F77822F86
:1015800090E034E0959587953A95E1F7982F990F7B
:10159000990F182F191B110F120F8A81282F30E075
:1015A00044E0359527954A95E1F7922F990F990FC9
:1015B000822E891A880C880E8B81282F30E054E007
:1015C000359527955A95E1F7922F990F990F022F8C
:1015D000091B000F080F0A3030F461E671E082ED5C
:1015E00092E00E94E805802F0E94F70541E06AE33F
:1015F00082ED92E00E94CB05F9E0F81508F04CC0AE
:10160000882D0E94F70541E06AE382ED92E00E9496
:10161000CB051A3008F447C0812F0E94F70568EE09
:1016200073E080E090E00E940D0240E061E082ED16
:1016300092E00E94CB05C6010197F1F7A114B10415
:1016400009F479CF0E94F900882309F474CF0E942D
:10165000000071CF8A8111E0813609F4F1CE8B81CF
:1016600017E08E3609F0ECCE16E0EACE8B8118E05A
:10167000823709F0E5CE14E0E3CE8B8115E08237A6
:1016800009F0DECE13E0DCCE19E0DACE1AE0D8CED7
:101690001BE0D6CE1CE0D4CE61E671E082ED92E094
:1016A0000E94E805ADCF61E671E082ED92E00E9414
:1016B000E805B2CFFB01DC0102C005900D9241505C
:1016C0005040D8F70895991B79E004C0991F9617E8
:1016D00008F0961B881F7A95C9F780950895A1E2B6
:1016E0001A2EAA1BBB1BFD010DC0AA1FBB1FEE1F9C
:1016F000FF1FA217B307E407F50720F0A21BB30BE7
:10170000E40BF50B661F771F881F991F1A9469F762
:1017100060957095809590959B01AC01BD01CF01BE
:101720000895EE0FFF1F0590F491E02D09940F939B
:101730001F93CF93DF938230910510F482E090E005
:10174000E091E002F091E10230E020E0B0E0A0E0C2
:10175000309799F42115310509F44AC0281B390B3B
:1017600024303105D8F58A819B816115710589F195
:10177000FB0193838283FE0111C04081518102816C
:10178000138148175907E0F04817590799F4109743
:1017900061F012960C93129713961C933296CF0118
:1017A000DF91CF911F910F9108950093E002109364
:1017B000E102F4CF2115310551F04217530738F0FB
:1017C000A901DB019A01BD01DF01F801C1CFEF01E1
:1017D000F9CF9093E1028093E002CDCFFE01E20FBA
:1017E000F31F819391932250310939832883D7CFF6
:1017F0002091DE023091DF02232B41F4209102017F
:10180000309103013093DF022093DE02209100012A
:10181000309101012115310541F42DB73EB74091BA
:10182000040150910501241B350BE091DE02F0917B
:10183000DF02E217F307A0F42E1B3F0B281739072E
:1018400078F0AC014E5F5F4F2417350748F04E0F1C
:101850005F1F5093DF024093DE02819391939FCFED
:10186000F0E0E0E09CCFCF93DF930097E9F0FC013C
:10187000329713821282A091E002B091E102ED0151
:1018800030E020E01097A1F420813181820F931F76
:101890002091DE023091DF022817390709F061C07C
:1018A000F093DF02E093DE02DF91CF910895EA0129
:1018B000CE17DF07E8F54A815B819E01411551058E
:1018C000B1F7E901FB83EA8349915991C40FD51F10
:1018D000EC17FD0761F4808191810296840F951FBA
:1018E000E90199838883828193819B838A83F0E0D5
:1018F000E0E012968D919C9113970097B9F52D9188
:101900003C911197CD010296820F931F2091DE0228
:101910003091DF022817390739F6309751F51092C8
:10192000E1021092E002B093DF02A093DE02BCCF8E
:10193000D383C28340815181840F951FC817D90773
:1019400061F44E5F5F4F88819981480F591F518321
:1019500040838A819B81938382832115310509F01D
:10196000B0CFF093E102E093E0029ECFFD01DC01F5
:0C197000C0CF13821282D7CFF894FFCFB3
:10197C000000E2028000000000002F018F00BC007C
:10198C007C01ED00CB00DF000000000047041A04CE
:10199C008A04F00313040004F10300000000E205C4
:1019AC008F008A043F02525443206973204E4F54D7
:1019BC002072756E6E696E672C206C6574277320AF
:1019CC00736574207468652074696D6521000D0A57
:0419DC0000300000D7
:00000001FF
