:100000000C9458000C9480000C9480000C94800098
:100010000C9480000C9480000C9480000C94800060
:100020000C9480000C9480000C9480000C94800050
:100030000C9480000C9480000C9480000C94800040
:100040000C94CD050C9480000C949B050C947505C4
:100050000C9480000C9480000C9480000C94800020
:100060000C9417060C948000000000002500280066
:100070002B00040404040404040402020202020229
:10008000030303030303010204081020408001025C
:1000900004081020010204081020000000080002DB
:1000A0000100000304070000000000000000360704
:1000B00011241FBECFEFD8E0DEBFCDBF23E0A8EAFA
:1000C000B1E001C01D92A832B207E1F711E0A0E053
:1000D000B1E0EAEFF7E102C005900D92A83AB1074E
:1000E000D9F710E0C8E5D0E004C02197FE010E94D6
:1000F000D00AC735D107C9F70E947E070C94FB0BC5
:100100000C94000008950895AF92BF92CF92DF92B1
:10011000EF92FF920F931F93CF93DF936C017B01BC
:100120008B01040F151FEB015E01AE18BF08C0174D
:10013000D10759F06991D601ED91FC910190F081C0
:10014000E02DC6010995892B79F7C501DF91CF9183
:100150001F910F91FF90EF90DF90CF90BF90AF90E5
:100160000895FC01538D448D252F30E0842F90E0BD
:10017000821B930B541710F0CF96089501970895A2
:10018000FC01918D828D981761F0A28DAE0FBF2F6B
:10019000B11D5D968C91928D9F5F9F73928F90E0C1
:1001A00008958FEF9FEF0895FC01918D828D981730
:1001B00031F0828DE80FF11D858D90E008958FEF6D
:1001C0009FEF0895FC01918D228D892F90E0805C36
:1001D0009F4F821B91098F73992708958FE692E0B4
:1001E0000E94E20021E0892B09F420E0822F08958B
:1001F00080E090E0892B29F00E94EE0081110C94A0
:1002000000000895FC01A48DA80FB92FB11DA35AB9
:10021000BF4F2C91848D90E001968F739927848F26
:10022000A689B7892C93A089B1898C918370806449
:100230008C93938D848D981306C00288F389E02DEA
:1002400080818F7D80830895EF92FF920F931F939B
:10025000CF93DF93EC0181E0888F9B8D8C8D981379
:100260001AC0E889F989808185FF15C09FB7F89485
:10027000EE89FF896083E889F989808183708064D1
:1002800080839FBF81E090E0DF91CF911F910F911C
:10029000FF90EF900895F62E0B8D10E00F5F1F4F2B
:1002A0000F731127E02E8C8D8E110CC00FB607FC3A
:1002B000FACFE889F989808185FFF5CFCE010E94C8
:1002C0000201F1CFEB8DEC0FFD2FF11DE35AFF4F33
:1002D000F0829FB7F8940B8FEA89FB898081806256
:1002E000CFCFCF93DF93EC01888D8823B9F0AA8913
:1002F000BB89E889F9898C9185FD03C0808186FDE1
:100300000DC00FB607FCF7CF8C9185FFF2CF80812F
:1003100085FFEDCFCE010E940201E9CFDF91CF91A1
:10032000089590E0FC01E656FF4F2491FC01EA5746
:10033000FF4F3491FC01EE58FF4FE491EE23C9F0DA
:10034000222339F0233001F1A8F4213019F12230B1
:1003500029F1F0E0EE0FFF1FE859FF4FA591B4918E
:100360008FB7F894EC91611126C030953E233C93F1
:100370008FBF08952730A9F02830C9F0243049F7FD
:10038000809180008F7D03C0809180008F77809363
:100390008000DFCF84B58F7784BDDBCF84B58F7DC0
:1003A000FBCF8091B0008F778093B000D2CF809147
:1003B000B0008F7DF9CF3E2BDACF3FB7F894809114
:1003C000F1019091F201A091F301B091F40126B5F1
:1003D000A89B05C02F3F19F00196A11DB11D3FBF7D
:1003E000BA2FA92F982F8827BC01CD01620F711D4C
:1003F000811D911D42E0660F771F881F991F4A9546
:10040000D1F708958F929F92AF92BF92CF92DF92D1
:10041000EF92FF924B015C010E94DD016B017C01B8
:100420000E94DD016C197D098E099F09683E7340A9
:1004300081059105A8F321E0821A9108A108B1086D
:1004400088EEC80E83E0D81EE11CF11C81149104D3
:10045000A104B10429F7FF90EF90DF90CF90BF90F7
:10046000AF909F908F90089508952091C901260F15
:100470003327331F21323105ECF420914502FC0172
:1004800090E080E0243069F082E00895A091C901F5
:100490002191AC0147555E4FA40FB52FB11D2C9390
:1004A0000196861798F38091C901680F6093C9017E
:1004B00080E0089581E008951092450281E08093E4
:1004C000440210921F0261E082E10E94910161E00A
:1004D00083E10E949101E9EBF0E080818E7F8083CF
:1004E00080818D7F808388E48093B80085E4809349
:1004F000BC00089510921E0210921D0210924C0230
:1005000010926E020E945C0282E890E090931C02BE
:1005100080931B0283E890E090931A028093190263
:100520000895CF93DF9391E09093A8018823B9F0C9
:10053000C091B800D091BA008091BC008A7B8093B2
:10054000BC0060E082E10E94910160E083E10E94D2
:1005500091010E945C02D093BA00C093B800DF9171
:10056000CF9108958F929F92AF92BF92CF92DF92D8
:10057000EF92FF920F931F93CF93DF93D0916E0270
:10058000D13208F0D7C0182FC0916D020E94DD0152
:100590006B017C018091450281116BC082E08093E8
:1005A0004502109344028FEF80934302109242025F
:1005B000D0934102ADE4B2E0E1E2F2E080E0D81392
:1005C00091C01092200280912002CC0FC82BC093C2
:1005D000200280911F02813009F088C010921F0212
:1005E0000E94DD016B017C01809120028093BB00A1
:1005F0008091470290914802A0914902B0914A022D
:10060000892B8A2B8B2BA1F00E94DD0100914702E0
:10061000109148022091490230914A026C197D09DB
:100620008E099F09061717072807390708F442C0E3
:100630008091BC0083FDD8CF85EC8093BC000E94E4
:10064000DD016B017C0180914502823009F450C0CC
:10065000809143028F3F09F46FC080914302803242
:1006600009F46CC080914302803309F469C084E0CE
:1006700026C08091470290914802A0914902B09112
:100680004A02892B8A2B8B2B09F484CF0E94DD012F
:100690008090470290904802A0904902B0904A0290
:1006A0006C197D098E099F0986169706A806B9065A
:1006B00008F070CF809146020E94910285E010926E
:1006C0004C0210926E0210924B02DF91CF911F915B
:1006D0000F91FF90EF90DF90CF90BF90AF909F90E1
:1006E0008F9008959D9191938F5F69CF85EEA5CFEF
:1006F0008091470290914802A0914902B0914A022C
:10070000892B8A2B8B2B09F49ECF0E94DD0100914F
:100710004702109148022091490230914A026C1917
:100720007D098E099F09061717072807390708F062
:100730008ACFC0CF81E0C3CF80E0C1CF82E0BFCFFE
:1007400083E0BDCFCF93DF93EC018B818823A1F0B1
:10075000888191E090934B0280936D0210924C023D
:1007600010926E0281E00E94B20291E0811190E04D
:10077000892FDF91CF9108950E947A0281E08B83C7
:10078000CE010E94A203982F8111E2CFF1CF0895EC
:10079000E0911E0280911D02E81730F4F0E0EB506A
:1007A000FE4F808190E008958FEF9FEF0895909124
:1007B0001E0280911D022FEF3FEF981748F4E92F9A
:1007C000F0E0EB50FE4F208130E09F5F90931E02DF
:1007D000C901089580911D0290911E02891B990BF9
:1007E0000895CF92DF92EF92FF920F931F93CF93D2
:1007F000DF937C01CB018A0120914B02222389F0F7
:10080000EB016B01C40ED51ECC15DD0569F06991B5
:10081000D701ED91FC910190F081E02DC701099580
:10082000F3CF642F0E943502C801DF91CF911F9151
:100830000F91FF90EF90DF90CF900895CF93DF93CB
:100840001F92CDB7DEB7698320914B022223F9F0C6
:1008500020916E02203258F021E030E0FC01338319
:10086000228390E080E00F90DF91CF9108958091F6
:100870004C02E82FF0E0E35BFD4F998190838F5F9E
:1008800080934C0280936E0281E090E0ECCF61E0B7
:10089000CE0101960E943502F7CFFC01248131E0A0
:1008A00030934B0220936D0210924C0210926E0214
:1008B0008385682B8CE093E00E941E0481E00C94F9
:1008C000B20290E080E008950F931F93CF938C01C4
:1008D000C62F0E944D046C2F6460C8010E944D0415
:1008E0006C2F6B7FC8010E944D0483EC90E0019750
:1008F000F1F7CF911F910F9108950F931F93CF930D
:10090000DF938C01D62FC42F607F642B0E94640478
:1009100080E1D89FB00111246C2BC801DF91CF91E9
:100920001F910F910C946404CF93DF93CDB7DEB782
:1009300028970FB6F894DEBF0FBECDBF98E0E6E46F
:10094000F1E0DE01119601900D929A95E1F79091F8
:100950002003981708F48FEF90E0880F991F21E08B
:1009600030E02C0F3D1F820F931FFC0160816068F7
:1009700040E088E193E028960FB6F894DEBF0FBE02
:10098000CDBFDF91CF910C947D0441E00E947D04A6
:1009900081E090E008950F931F93CF93DF938B0135
:1009A00098E0899FB0011124606440E088E193E001
:1009B0000E947D04E801085F1F4F699188E193E080
:1009C0000E94C504C017D107C1F7DF91CF911F91D5
:1009D0000F910895FB0101900020E9F73197AF01D5
:1009E000461B570BDC01ED91FC910280F381E02D59
:1009F0000994CF92DF92EF92FF920F931F93CF93C0
:100A0000DF93CDB7DEB7A1970FB6F894DEBF0FBE68
:100A1000CDBF282F30E050E040E019A28E010F5DDD
:100A20001F4F8AE0C82ED12CE12CF12CCA01B9014C
:100A3000A70196010E94AE0A605DF80162938F01E2
:100A4000211531054105510589F790E080E0309787
:100A500029F0BF0188E193E00E94EA04A1960FB655
:100A6000F894DEBF0FBECDBFDF91CF911F910F91E4
:100A7000FF90EF90DF90CF90089585ED8093BC00BC
:100A80008091470290914802A0914902B0914A0298
:100A90000796A11DB11D23E0B695A795979587955B
:100AA0002A95D1F72091BC0024FD03C01092450285
:100AB0000895409147025091480260914902709117
:100AC0004A02452B462B472B69F30097A105B10538
:100AD00041F025E32A95F1F700000197A109B1093A
:100AE000E1CF809146020C9491021F920F920FB6B3
:100AF0000F9211242F933F934F935F936F937F93A4
:100B00008F939F93AF93BF93EF93FF938FE692E002
:100B10000E940201FF91EF91BF91AF919F918F9140
:100B20007F916F915F914F913F912F910F900FBEE9
:100B30000F901F9018951F920F920FB60F921124CD
:100B40002F938F939F93EF93FF93E0917F02F09108
:100B500080028081E0918502F091860282FD1BC0B7
:100B60009081809188028F5F8F7320918902821714
:100B700041F0E0918802F0E0E159FD4F958F8093BC
:100B80008802FF91EF919F918F912F910F900FBE4F
:100B90000F901F9018958081F4CF1F920F920FB67F
:100BA0000F9211242F933F938F939F93AF93BF93F3
:100BB0008091ED019091EE01A091EF01B091F001D3
:100BC0003091EC0123E0230F2D3758F50196A11D3C
:100BD000B11D2093EC018093ED019093EE01A09361
:100BE000EF01B093F0018091F1019091F201A09199
:100BF000F301B091F4010196A11DB11D8093F101A3
:100C00009093F201A093F301B093F401BF91AF91DF
:100C10009F918F913F912F910F900FBE0F901F903A
:100C2000189526E8230F0296A11DB11DD2CF1F9261
:100C30000F920FB60F9211242F933F934F935F9310
:100C40006F937F938F939F93AF93BF93EF93FF9394
:100C50008091B900887F803609F44AC0F0F5883267
:100C600009F4A7C018F5803109F49BC0B8F48823B3
:100C700009F4F9C0883009F494C0FF91EF91BF9155
:100C8000AF919F918F917F916F915F914F913F9124
:100C90002F910F900FBE0F901F901895883109F477
:100CA00088C0803251F78093430214C0803409F425
:100CB0009DC040F48033B9F38833F9F68093430242
:100CC00085ECB0C0803509F485C0883509F496C03C
:100CD000883499F60E943D05D0CF883909F48CC03C
:100CE00038F5883729F050F4883611F0803729F626
:100CF00083E0809345021092EB0157C0883809F4D5
:100D00007BC0803919F0803809F0B7CF8091EB01B2
:100D1000803208F071C0E091EB0181E08E0F80938A
:100D2000EB018091BB00F0E0E553FE4F80833DC0B6
:100D3000803B39F0E0F4803A09F479C0883A09F050
:100D40009CCF84E0809345021092CA011092C901A1
:100D5000E0911B02F0911C0209958091C90181115B
:100D60000FC081E08093C9011092A90109C0803CA5
:100D700009F4A6CF883C09F4A3CF883B09F07DCFC6
:100D8000E091CA0181E08E0F8093CA01F0E0E7553F
:100D9000FE4F80818093BB009091CA018091C90170
:100DA00029C0809120028093BB0085EC8093BC0019
:100DB00064CF9091420280914102981758F5E091DA
:100DC000420281E08E0F80934202F0E0EF5DFD4F22
:100DD0008081E9CFE091420281E08E0F8093420250
:100DE0008091BB00F0E0EF5DFD4F80839091420267
:100DF000809141029817C8F285E8D8CFE09142026D
:100E000081E08E0F809342028091BB00F0E0EF5DA5
:100E1000FD4F80838091440281115CCF81E08093FB
:100E20001F0284EA8093BC001092450226CF85EC15
:100E30008093BC00109245028091EB01803230F427
:100E4000E091EB01F0E0E553FE4F10826091EB0181
:100E500070E0E0911902F0911A028BEC91E0099593
:100E60001092EB010ACF1092430234CFEFE6F2E08A
:100E70001382128288EE93E0A0E0B0E08483958331
:100E8000A683B78322E531E03183208325EC30E06F
:100E90003587248724EC30E03787268720EC30E044
:100EA000318B208B21EC30E0338B228B22EC30E035
:100EB000358B248B26EC30E0378B268B118E128EEF
:100EC000138E148EECE0F3E01382128284839583F8
:100ED000A683B78384E691E091838083E8E1F3E021
:100EE0001382128286E791E09183808387E2848374
:100EF00080E1818782E0828713860895CF93DF9314
:100F000000D000D000D01F92CDB7DEB7789484B562
:100F1000826084BD84B5816084BD85B5826085BDF5
:100F200085B5816085BD80916E00816080936E0083
:100F30001092810080918100826080938100809175
:100F40008100816080938100809180008160809326
:100F500080008091B10084608093B1008091B000E6
:100F600081608093B00080917A00846080937A00E1
:100F700080917A00826080937A0080917A0081600B
:100F800080937A0080917A00806880937A00109232
:100F9000C100E0917F02F091800282E08083E091C5
:100FA0007B02F0917C021082E0917D02F0917E0242
:100FB0008FEC808310928702E0918302F09184028B
:100FC00086E08083E0918102F091820280818061DD
:100FD0008083E0918102F091820280818860808329
:100FE000E0918102F0918202808180688083E091AB
:100FF0008102F091820280818F7D8083809117022F
:1010000090911802009711F00E94720B86E090E018
:101010000E94D60A8C0188E6D8018C938CE093E07C
:1010200012969C938E93119713961C92139780E2BD
:1010300090E015969C938E9314971093180200934A
:1010400017020E947A0281E0F8018383C8010E949E
:10105000A203811117C06EE771E08FE692E00E9453
:10106000EA0460E971E08FE692E00E94EA048FE60C
:1010700092E00E9471016AE070E080E090E00E94DE
:101080000202F9CF68E371E080E00E94CB0460E3E4
:1010900071E081E00E94CB0468E271E082E00E948E
:1010A000CB0460E271E083E00E94CB0468E171E070
:1010B00084E00E94CB0460E171E085E00E94CB04F3
:1010C00068E071E086E00E94CB0460E071E087E0B8
:1010D0000E94CB040E947A0210921D038091220389
:1010E000823008F030C18093200362E370E080E03A
:1010F00090E00E9402026091230388E193E00E9445
:101100004D0468EE73E080E090E00E94020260E32C
:1011100088E193E00E9464040BE416E4C80101979F
:10112000F1F760E388E193E00E946404C80101974D
:10113000F1F760E388E193E00E94640483E592E0C4
:101140000197F1F760E288E193E00E946404609106
:101150001D03606240E088E193E00E947D0484E02A
:1011600080931E0340E06CE088E193E00E947D04E0
:1011700040E061E088E193E00E947D040BE31FE121
:10118000C8010197F1F782E080931F0340E066E019
:1011900088E193E00E947D0440E062E088E193E012
:1011A0000E947D04C8010197F1F788E08093230332
:1011B00060E088E193E00E944D0480E00E94940486
:1011C00063E971E088E193E00E94EA04F7E08F2E82
:1011D000912CE5EC2E2E332433941982C090170203
:1011E000D0901802D60114968D919C911597892B59
:1011F00009F425C111968D919C9112972C913092F2
:101200004B0220936D0210924C0210926E02DC0190
:10121000ED91FC910280F381E02D41E050E0BE01B0
:101220006F5F7F4F0995019709F009C180E00E9427
:10123000B202811104C1F12CE12CF6018481958167
:1012400084010E191F098017910708F48C01D6013B
:10125000AC900E94DD012B013C018091450281117F
:1012600076C0B02EB0E2B01710F470E2B72E309214
:10127000450221E0C401801B910BE816F90608F431
:1012800020E020934402EFEFE093430210924202E9
:101290008FEF8B0D809341023092200280912002CB
:1012A000AA0CA82AA092200280911F02813009F086
:1012B00099C010921F020E94DD012B013C01809118
:1012C00020028093BB008091470290914802A09138
:1012D0004902B0914A02892B8A2B8B2BA1F00E94E4
:1012E000DD0120914702309148024091490250911E
:1012F0004A026419750986099709261737074807AE
:10130000590708F445C08091BC0083FDD8CF2092D6
:10131000BC000E94DD012B013C018091450281301F
:1013200009F464C0809142028B1510F4B09042021F
:10133000A1E2B2E0E5EFF1E080E08B1571F19D9163
:1013400091938F5FFACF98E090931D03CCCE80915C
:10135000470290914802A0914902B0914A02892B1C
:101360008A2B8B2B09F479CF0E94DD012091470253
:10137000309148024091490250914A02641975091E
:1013800086099709261737074807590708F065CFD8
:10139000809146020E949102B12C10921E02B092DE
:1013A0001D02B016110609F04AC0AA24A394B12C5C
:1013B000AC0EBD1EAE0CBF1C3501C50186199709C8
:1013C00080179107A8F5D60111968D919C91DC01AB
:1013D000ED91FC910284F385E02D0995F50181934F
:1013E0005F01EBCFF5EEF093BC0093CF8091470205
:1013F00090914802A0914902B0914A02892B8A2B10
:101400008B2B09F48ACF0E94DD0120914702309195
:1014100048024091490250914A02641975098609AF
:101420009709261737074807590708F076CFB0CF36
:10143000E00EF11EF7E0EF16F10408F4FECE29816C
:101440002F77822F90E034E0959587953A95E1F7D4
:10145000982F990F990F182F191B110F120F2A810E
:10146000822F90E044E0959587954A95E1F7982F73
:10147000990F990F082F091B000F020F8B81282F3E
:1014800030E054E0359527955A95E1F7922F990F62
:10149000990FF22EF91AFF0CF80E81E00E949404C5
:1014A00089E08F1530F063EA71E088E193E00E94F3
:1014B000EA048F2D0E94F90441E06AE388E193E099
:1014C0000E947D040A3030F463EA71E088E193E021
:1014D0000E94EA04802F0E94F90441E06AE388E157
:1014E00093E00E947D041A3030F463EA71E088E1F1
:1014F00093E00E94EA04812F0E94F90465EA71E0FA
:1015000088E193E00E94EA0400911502109116020E
:10151000602F88E193E00E94C5040F5F1F4F0830E1
:101520001105B9F0109316020093150264E670E0FD
:1015300080E090E00E940202A0E0B0E0AB2B09F452
:101540004CCE0E94EE00882309F445CE0E94000094
:1015500040CE1092160210921502E8CFA1E21A2E88
:10156000AA1BBB1BFD010DC0AA1FBB1FEE1FFF1F47
:10157000A217B307E407F50720F0A21BB30BE40B97
:10158000F50B661F771F881F991F1A9469F76095DE
:101590007095809590959B01AC01BD01CF01089598
:1015A000EE0FFF1F0590F491E02D09940F931F9308
:1015B000CF93DF938230910510F482E090E0E091C8
:1015C0002603F091270330E020E0B0E0A0E0309760
:1015D00099F42115310509F44AC0281B390B243030
:1015E0003105D8F58A819B816115710589F1FB016F
:1015F00093838283FE0111C0408151810281138156
:1016000048175907E0F04817590799F4109761F007
:1016100012960C93129713961C933296CF01DF917A
:10162000CF911F910F9108950093260310932703E4
:10163000F4CF2115310551F04217530738F0A901B5
:10164000DB019A01BD01DF01F801C1CFEF01F9CF44
:101650009093270380932603CDCFFE01E20FF31F63
:10166000819391932250310939832883D7CF2091D8
:10167000240330912503232B41F420914201309122
:10168000430130932503209324032091400130919E
:1016900041012115310541F42DB73EB74091440178
:1016A00050914501241B350BE0912403F091250353
:1016B000E217F307A0F42E1B3F0B2817390778F029
:1016C000AC014E5F5F4F2417350748F04E0F5F1F88
:1016D0005093250340932403819391939FCFF0E08F
:1016E000E0E09CCFCF93DF930097E9F0FC013297C5
:1016F00013821282A0912603B0912703ED0130E0FE
:1017000020E01097A1F420813181820F931F209156
:101710002403309125032817390709F061C0F0939D
:101720002503E0932403DF91CF910895EA01CE17BA
:10173000DF07E8F54A815B819E0141155105B1F74C
:10174000E901FB83EA8349915991C40FD51FEC1736
:10175000FD0761F4808191810296840F951FE90154
:1017600099838883828193819B838A83F0E0E0E080
:1017700012968D919C9113970097B9F52D913C91FC
:101780001197CD010296820F931F2091240330916F
:1017900025032817390739F6309751F5109227039A
:1017A00010922603B0932503A0932403BCCFD383C8
:1017B000C28340815181840F951FC817D90761F4F6
:1017C0004E5F5F4F88819981480F591F5183408335
:1017D0008A819B81938382832115310509F0B0CFE3
:1017E000F0932703E09326039ECFFD01DC01C0CFD9
:0A17F00013821282D7CFF894FFCFC6
:1017FA000E1915151511110E0E1111111D11110EBB
:10180A000E1111111515190E0E1111111515150EAE
:10181A000E1111111515130E0E1111111711110EAA
:10182A000E1313151511110E0E1515151511110E8E
:10183A00000028038000000040001400540000004B
:10184A00000024018400B1007101E200C000D4004C
:10185A00000000001E04F1036104C703EA03D70372
:10186A00C80300000000C504840061043402436F09
:10187A00756C646E27742066696E64205254430046
:10188A000D0A00202020416C61726D612053616E47
:08189A00626F00300020000025
:00000001FF
