:100000000C9468000C9490000C9490000C94900058
:100010000C9490000C9490000C9490000C94900020
:100020000C9490000C9490000C9490000C94900010
:100030000C9490000C9490000C9490000C94900000
:100040000C9410080C9490000C94DE070C94B807E4
:100050000C9490000C9490000C9490000C949000E0
:100060000C945A080C949000000000002400270013
:100070002A0000000000250028002B0000000000DE
:1000800023002600290004040404040404040202DA
:100090000202020203030303030301020408102007
:1000A0004080010204081020010204081020000012
:1000B0000008000201000003040700000000000027
:1000C00000001F1C1F1E1F1E1F1F1E1F1E00D40905
:1000D00011241FBECFEFD8E0DEBFCDBF23E0AAEDD5
:1000E000B1E001C01D92AF3CB207E1F711E0A0E022
:1000F000B1E0E4EBFCE202C005900D92AA3DB1072D
:10010000D9F710E0C8E6D0E004C02197FE010E94B4
:100110002D15C736D107C9F70E941C0A0C94581632
:100120000C94000008950895AF92BF92CF92DF9291
:10013000EF92FF920F931F93CF93DF936C017B019C
:100140008B01040F151FEB015E01AE18BF08C0172D
:10015000D10759F06991D601ED91FC910190F081A0
:10016000E02DC6010995892B79F7C501DF91CF9163
:100170001F910F91FF90EF90DF90CF90BF90AF90C5
:100180000895FC01538D448D252F30E0842F90E09D
:10019000821B930B541710F0CF9608950197089582
:1001A000FC01918D828D981761F0A28DAE0FBF2F4B
:1001B000B11D5D968C91928D9F5F9F73928F90E0A1
:1001C00008958FEF9FEF0895FC01918D828D981710
:1001D00031F0828DE80FF11D858D90E008958FEF4D
:1001E0009FEF0895FC01918D228D892F90E0805C16
:1001F0009F4F821B91098F739927089586E193E0A1
:100200000E94F20021E0892B09F420E0822F08955A
:1002100080E090E0892B29F00E94FE0081110C946F
:1002200000000895FC01A48DA80FB92FB11DA35A99
:10023000BF4F2C91848D90E001968F739927848F06
:10024000A689B7892C93A089B1898C918370806429
:100250008C93938D848D981306C00288F389E02DCA
:1002600080818F7D80830895EF92FF920F931F937B
:10027000CF93DF93EC0181E0888F9B8D8C8D981359
:100280001AC0E889F989808185FF15C09FB7F89465
:10029000EE89FF896083E889F989808183708064B1
:1002A00080839FBF81E090E0DF91CF911F910F91FC
:1002B000FF90EF900895F62E0B8D10E00F5F1F4F0B
:1002C0000F731127E02E8C8D8E110CC00FB607FC1A
:1002D000FACFE889F989808185FFF5CFCE010E94A8
:1002E0001201F1CFEB8DEC0FFD2FF11DE35AFF4F03
:1002F000F0829FB7F8940B8FEA89FB898081806236
:10030000CFCFCF93DF93EC01888D8823B9F0AA89F2
:10031000BB89E889F9898C9185FD03C0808186FDC0
:100320000DC00FB607FCF7CF8C9185FFF2CF80810F
:1003300085FFEDCFCE010E941201E9CFDF91CF9171
:100340000895833081F028F4813099F08230A9F04B
:1003500008958730A9F08830C9F08430B1F48091D5
:1003600080008F7D03C0809180008F778093800014
:10037000089584B58F7784BD089584B58F7DFBCFB4
:100380008091B0008F778093B00008958091B00085
:100390008F7DF9CFCF93DF93282F30E0F901E2551D
:1003A000FF4F8491F901E656FF4FD491F901EA57C6
:1003B000FF4FC491CC23A1F081110E94A101EC2F29
:1003C000F0E0EE0FFF1FE458FF4FA591B491EC91C0
:1003D000ED2381E090E009F480E0DF91CF91089572
:1003E00080E090E0FACF1F93CF93DF93282F30E087
:1003F000F901E255FF4F8491F901E656FF4FD49180
:10040000F901EA57FF4FC491CC23A9F0162F8111AF
:100410000E94A101EC2FF0E0EE0FFF1FEE58FF4FFE
:10042000A591B4918FB7F894EC91111108C0D095B3
:10043000DE23DC938FBFDF91CF911F910895DE2BD8
:10044000F8CF3FB7F8948091230290912402A091B5
:100450002502B091260226B5A89B05C02F3F19F0B2
:100460000196A11DB11D3FBFBA2FA92F982F882734
:10047000BC01CD01620F711D811D911D42E0660F0F
:10048000771F881F991F4A95D1F708958F929F92E1
:10049000AF92BF92CF92DF92EF92FF924B015C013D
:1004A0000E9421026B017C010E9421026C197D09CE
:1004B0008E099F09683E734081059105A8F321E0EC
:1004C000821A9108A108B10888EEC80E83E0D81EF0
:1004D000E11CF11C81149104A104B10429F7FF90DF
:1004E000EF90DF90CF90BF90AF909F908F90089546
:1004F00008952091FB01260F3327331F2132310548
:10050000ECF42091EC02FC0190E080E0243069F0F2
:1005100082E00895A091FB012191AC0145525E4F0C
:10052000A40FB52FB11D2C930196861798F38091D7
:10053000FB01680F6093FB0180E0089581E008955E
:100540001092EC0281E08093EB021092C60261E00F
:1005500082E10E94F30161E083E10E94F301E9EB93
:10056000F0E080818E7F808380818D7F808388E42E
:100570008093B80085E48093BC0008951092C50272
:100580001092C4021092F302109215030E94A0026E
:1005900082E990E09093C3028093C20283E990E0E5
:1005A0009093C1028093C0020895CF93DF9391E0AE
:1005B0009093DA018823B9F0C091B800D091BA00C5
:1005C0008091BC008A7B8093BC0060E082E10E9445
:1005D000F30160E083E10E94F3010E94A002D09346
:1005E000BA00C093B800DF91CF9108958F929F9287
:1005F000AF92BF92CF92DF92EF92FF920F931F9331
:10060000CF93DF93D0911503D13208F0D7C0182FC4
:10061000C09114030E9421026B017C018091EC02C5
:1006200081116BC082E08093EC021093EB028FEF9C
:100630008093EA021092E902D093E802A4EFB2E0BC
:10064000E8ECF2E080E0D81391C01092C7028091EC
:10065000C702CC0FC82BC093C7028091C60281305D
:1006600009F088C01092C6020E9421026B017C0131
:100670008091C7028093BB008091EE029091EF02BF
:10068000A091F002B091F102892B8A2B8B2BA1F063
:100690000E9421020091EE021091EF022091F002DF
:1006A0003091F1026C197D098E099F090617170711
:1006B0002807390708F442C08091BC0083FDD8CFD9
:1006C00085EC8093BC000E9421026B017C0180912B
:1006D000EC02823009F450C08091EA028F3F09F4A5
:1006E0006FC08091EA02803209F46CC08091EA0206
:1006F000803309F469C084E026C08091EE029091B5
:10070000EF02A091F002B091F102892B8A2B8B2B82
:1007100009F484CF0E9421028090EE029090EF02B3
:10072000A090F002B090F1026C197D098E099F092A
:1007300086169706A806B90608F070CF8091ED02DC
:100740000E94D50285E01092F302109215031092D8
:10075000F202DF91CF911F910F91FF90EF90DF9008
:10076000CF90BF90AF909F908F9008959D9191935F
:100770008F5F69CF85EEA5CF8091EE029091EF0259
:10078000A091F002B091F102892B8A2B8B2B09F4F6
:100790009ECF0E9421020091EE021091EF02209163
:1007A000F0023091F1026C197D098E099F0906173C
:1007B00017072807390708F08ACFC0CF81E0C3CFD9
:1007C00080E0C1CF82E0BFCF83E0BDCFCF93DF9386
:1007D000EC018B818823A1F0888191E09093F20253
:1007E000809314031092F3021092150381E00E948B
:1007F000F60291E0811190E0892FDF91CF91089569
:100800000E94BE0281E08B83CE010E94E603982FF6
:100810008111E2CFF1CF0895E091C5028091C40229
:10082000E81730F4F0E0E056FD4F808190E0089545
:100830008FEF9FEF08959091C5028091C4022FEF32
:100840003FEF981748F4E92FF0E0E056FD4F208184
:1008500030E09F5F9093C502C90108958091C40262
:100860009091C502891B990B0895CF92DF92EF9268
:10087000FF920F931F93CF93DF937C01CB018A01EB
:100880002091F202222389F0EB016B01C40ED51EE8
:10089000CC15DD0569F06991D701ED91FC910190CE
:1008A000F081E02DC7010995F3CF642F0E947902F2
:1008B000C801DF91CF911F910F91FF90EF90DF90D2
:1008C000CF900895CF93DF931F92CDB7DEB76983A2
:1008D0002091F2022223F9F020911503203258F0E2
:1008E00021E030E0FC013383228390E080E00F9030
:1008F000DF91CF9108958091F302E82FF0E0EC5062
:10090000FD4F998190838F5F8093F302809315034D
:1009100081E090E0ECCF61E0CE0101960E94790287
:10092000F7CFFC01248131E03093F20220931403CD
:100930001092F302109215038385682B83EB93E0EA
:100940000E94620481E00C94F60290E080E0089539
:1009500083E00E94CA01892B19F481E090E0089598
:1009600084E00E94CA01892BC1F385E00E94CA017C
:10097000892B99F38BE00E94CA0131E020E0892B9A
:1009800009F030E0832F922F08958F929F92AF92BB
:10099000BF920F931F93CF93DF93CDB7DEB7A1978D
:1009A0000FB6F894DEBF0FBECDBF19A2423008F4D7
:1009B0004AE08E010F5D1F4F842E912CB12CA12C8B
:1009C000A50194010E940B15E62FB901CA01EA3076
:1009D00044F5E05DD801EE938D01232B242B252BCC
:1009E00079F790E080E0109769F0FD010190002018
:1009F000E9F73197AF014A1B5B0BBD018FEB93E029
:100A00000E949400A1960FB6F894DEBF0FBECDBF32
:100A1000DF91CF911F910F91BF90AF909F908F90DA
:100A20000895E95CD7CFFC0101900020E9F73197E8
:100A3000AF01481B590BBC018FEB93E00C94940061
:100A40002F923F924F925F926F927F928F929F92DE
:100A5000AF92BF92CF92DF92EF92FF920F931F93CC
:100A6000CF93DF93DC011496ED91FC91EF2B09F409
:100A70001CC159011A018C01FC01818192812081E4
:100A800031E03093F202209314031092F30210929B
:100A90001503DC01ED91FC910280F381E02D41E032
:100AA00050E00995019709F000C180E00E94F6022C
:100AB0008111FBC0D12CC12CF80184819581750175
:100AC000EC18FD088E159F0508F47C01D801DC9117
:100AD0000E9421022B013C018091EC02811173C024
:100AE000CE2DC13208F0C0E2B1E0B093EC0221E0BB
:100AF000C5018E199F09C816D90608F420E0209375
:100B0000EB02EFEFE093EA021092E9028FEF8C0F15
:100B10008093E802F1E0F093C7028091C702DD0FF5
:100B2000D82BD093C7028091C602813009F08FC0C4
:100B30001092C6020E9421022B013C018091C70243
:100B40008093BB008091EE029091EF02A091F002A1
:100B5000B091F102892B8A2B8B2BA1F00E942102EC
:100B60002091EE023091EF024091F0025091F1029B
:100B70006419750986099709261737074807590721
:100B800008F442C08091BC0083FDD8CF85EC8093EF
:100B9000BC000E9421022B013C018091EC028130BB
:100BA00009F459C08091E9028C1710F4C091E90250
:100BB000A8ECB2E0E0EAF2E080E08C1751F19D9100
:100BC00091938F5FFACF8091EE029091EF02A09106
:100BD000F002B091F102892B8A2B8B2B09F47CCF88
:100BE0000E9421022091EE023091EF024091F0022A
:100BF0005091F1026419750986099709261737077C
:100C00004807590708F068CF8091ED020E94D5028D
:100C1000C0E01092C502C093C402CE151F0409F0B3
:100C200044C041018C0C9D1CE401CE018819990936
:100C30008E159F0590F5F80181819281DC01ED917F
:100C4000FC910284F385E02D09958993EECFA5EE02
:100C5000A093BC009ECF8091EE029091EF02A091F4
:100C6000F002B091F102892B8A2B8B2B09F495CFDE
:100C70000E9421022091EE023091EF024091F00299
:100C80005091F102641975098609970926173707EB
:100C90004807590708F081CFB7CFCE0CDF1CCA1424
:100CA000DB0408F409CF81E001C080E0DF91CF913F
:100CB0001F910F91FF90EF90DF90CF90BF90AF907A
:100CC0009F908F907F906F905F904F903F902F906C
:100CD0000895682F70E090E080E04AE00C94C5042D
:100CE0000F931F93CF938C01C62F0E9491046C2FFA
:100CF0006460C8010E9491046C2F6B7FC8010E9440
:100D0000910483EC90E00197F1F7CF911F910F913F
:100D100008950F931F93CF93DF938C01D62FC42F89
:100D2000607F642B0E94700680E1D89FB00111247F
:100D30006C2BC801DF91CF911F910F910C9470061D
:100D400040E061E08FEB93E00E9489068BE39FE136
:100D50000197F1F70895CF93DF93CDB7DEB72897CA
:100D60000FB6F894DEBF0FBECDBF98E0EEE2F1E023
:100D7000DE01119601900D929A95E1F79091C703CB
:100D8000961708F46FEF262F30E0220F331F41E053
:100D900050E04C0F5D1F240F351FF9016081680F73
:100DA000606840E08FEB93E028960FB6F894DEBFC2
:100DB0000FBECDBFDF91CF910C9489068BE00E94CE
:100DC000CA01892B01F50E94A00660E080E00E9424
:100DD000AB0684E791E00E9413058BE00E94CA01F4
:100DE000892B29F461E08CE00E94F301F6CF64EFD7
:100DF00071E080E090E00E94460260E08CE00E949A
:100E0000F3010C94A006089541E00E94890681E058
:100E100090E0089541E0682F8FEB93E00E948906EF
:100E200081E090E00895CF92DF92EF92FF92CF930E
:100E3000DF936C01990FEE08FF08F7FE17C08DE2F3
:100E40000E940A07EC0166277727CB016C197D0900
:100E50008E099F094AE00E94C5048C0F9D1FDF91F7
:100E6000CF91FF90EF90DF90CF9008954AE0C701B7
:100E7000B601DF91CF91FF90EF90DF90CF900C946F
:100E8000C50485ED8093BC008091EE029091EF0245
:100E9000A091F002B091F1020796A11DB11D23E0CF
:100EA000B695A795979587952A95D1F72091BC007F
:100EB00024FD03C01092EC0208954091EE0250917F
:100EC000EF026091F0027091F102452B462B472B07
:100ED00069F30097A105B10541F025E32A95F1F7E3
:100EE00000000197A109B109E1CF8091ED020C94B6
:100EF000D502CF92DF92EF92FF920F931F93CF9381
:100F0000DF9307E212E06801D0E0C0E0F801608101
:100F1000CE010E9446147E01F8016281CE01019645
:100F20000E944614F8016481CE0102960E94461484
:100F3000FAE0EF0EF11C2396F601EC0FFD1F638122
:100F4000CE010E9446142196CE15DF05A9F7035F56
:100F50001F4F83E0C80ED11CC035D105B9F6DF9113
:100F6000CF911F910F91FF90EF90DF90CF90089558
:100F70001F920F920FB60F9211242F933F934F930E
:100F80005F936F937F938F939F93AF93BF93EF93F1
:100F9000FF9386E193E00E941201FF91EF91BF91D0
:100FA000AF919F918F917F916F915F914F913F9101
:100FB0002F910F900FBE0F901F9018951F920F92B8
:100FC0000FB60F9211242F938F939F93EF93FF935C
:100FD000E0912603F09127038081E0912C03F091AA
:100FE0002D0382FD1BC0908180912F038F5F8F7333
:100FF00020913003821741F0E0912F03F0E0EA5E88
:10100000FC4F958F80932F03FF91EF919F918F91CC
:101010002F910F900FBE0F901F9018958081F4CFE5
:101020001F920F920FB60F9211242F933F938F931D
:101030009F93AF93BF9380911F0290912002A09144
:101040002102B091220230911E0223E0230F2D379E
:1010500058F50196A11DB11D20931E0280931F0219
:1010600090932002A0932102B09322028091230248
:1010700090912402A0912502B09126020196A11D13
:10108000B11D8093230290932402A0932502B09374
:101090002602BF91AF919F918F913F912F910F9019
:1010A0000FBE0F901F90189526E8230F0296A11DE2
:1010B000B11DD2CF1F920F920FB60F9211242F9312
:1010C0003F934F935F936F937F938F939F93AF93D0
:1010D000BF93EF93FF938091B900887F803609F426
:1010E0004AC0F0F5883209F4A7C018F5803109F438
:1010F0009BC0B8F4882309F4F9C0883009F494C07F
:10110000FF91EF91BF91AF919F918F917F916F91DF
:101110005F914F913F912F910F900FBE0F901F90B5
:101120001895883109F488C0803251F78093EA021B
:1011300014C0803409F49DC040F48033B9F388337F
:10114000F9F68093EA0285ECB0C0803509F485C0D9
:10115000883509F496C0883499F60E944107D0CFAB
:10116000883909F48CC038F5883729F050F488366E
:1011700011F0803729F683E08093EC0210921D0273
:1011800057C0883809F47BC0803919F0803809F0DD
:10119000B7CF80911D02803208F071C0E0911D022E
:1011A00081E08E0F80931D028091BB00F0E0E35040
:1011B000FE4F80833DC0803B39F0E0F4803A09F473
:1011C00079C0883A09F09CCF84E08093EC021092B9
:1011D000FC011092FB01E091C202F091C30209955B
:1011E0008091FB0181110FC081E08093FB0110927F
:1011F000DB0109C0803C09F4A6CF883C09F4A3CFE9
:10120000883B09F07DCFE091FC0181E08E0F809357
:10121000FC01F0E0E552FE4F80818093BB0090918D
:10122000FC018091FB0129C08091C7028093BB0023
:1012300085EC8093BC0064CF9091E9028091E80234
:10124000981758F5E091E90281E08E0F8093E9024A
:10125000F0E0E853FD4F8081E9CFE091E90281E0C1
:101260008E0F8093E9028091BB00F0E0E853FD4FC0
:1012700080839091E9028091E8029817C8F285E88E
:10128000D8CFE091E90281E08E0F8093E90280914E
:10129000BB00F0E0E853FD4F80838091EB028111A9
:1012A0005CCF81E08093C60284EA8093BC001092F8
:1012B000EC0226CF85EC8093BC001092EC0280916A
:1012C0001D02803230F4E0911D02F0E0E350FE4F49
:1012D000108260911D0270E0E091C002F091C102A5
:1012E0008DEF91E0099510921D020ACF1092EA024B
:1012F00034CFCF93DF9390E0FC01E656FF4F24916B
:101300008A579F4FFC0184918823C9F090E0880F91
:10131000991FFC01E859FF4FA591B491FC01EE58CB
:10132000FF4FC591D49161110DC09FB7F8948C9176
:10133000209582238C938881282328839FBFDF9167
:10134000CF910895623051F49FB7F8943C91822F69
:10135000809583238C93E8812E2BEFCF8FB7F89461
:10136000EC912E2B2C938FBFEACF0F931F93CF932B
:10137000DF938B0198E0899FB0011124606440E005
:101380008FEB93E00E948906E801085F1F4F699187
:101390008FEB93E00E940407C017D107C1F7DF91DC
:1013A000CF911F910F910895E6E1F3E0138212822D
:1013B00088EE93E0A0E0B0E084839583A683B783B2
:1013C00028E431E03183208325EC30E03587248721
:1013D00024EC30E03787268720EC30E0318B208BFF
:1013E00021EC30E0338B228B22EC30E0358B248BE8
:1013F00026EC30E0378B268B118E128E138E148ED6
:10140000E3EBF3E01382128284839583A683B78390
:101410008AE591E091838083EFEBF3E013821282FF
:101420008CE691E09183808387E2848380E18187E9
:1014300082E0828713860895CF93DF93CDB7DEB71E
:1014400029970FB6F894DEBF0FBECDBF789484B550
:10145000826084BD84B5816084BD85B5826085BDB0
:1014600085B5816085BD80916E00816080936E003E
:101470001092810080918100826080938100809130
:1014800081008160809381008091800081608093E1
:1014900080008091B10084608093B1008091B000A1
:1014A00081608093B00080917A00846080937A009C
:1014B00080917A00826080937A0080917A008160C6
:1014C00080937A0080917A00806880937A001092ED
:1014D000C100E0912603F091270382E08083E09130
:1014E0002203F09123031082E0912403F09125035D
:1014F0008FEC808310922E03E0912A03F0912B034E
:1015000086E08083E0912803F09129038081806147
:101510008083E0912803F091290380818860808393
:10152000E0912803F0912903808180688083E09115
:101530002803F091290380818F7D808380919E0212
:1015400090919F02009711F00E94CF1586E090E0E5
:101550000E9433158C0188E6F801808383EB93E0C9
:1015600092838183138280E290E095838483109339
:101570009F0200939E020E94BE0281E0F8018383D5
:10158000C8010E94E603882309F4B5C161E082E046
:101590000E94790961E08CE00E94790960E083E0B3
:1015A0000E94790960E084E00E94790960E085E0AA
:1015B0000E94790960E086E00E94790960E087E096
:1015C0000E94790960E088E00E94790960E089E082
:1015D0000E94790960E08AE00E94790960E08BE06E
:1015E0000E94790962E083E00E94790962E084E068
:1015F0000E94790962E085E00E94790962E086E054
:101600000E94790962E087E00E94790962E088E03F
:101610000E94790962E089E00E94790962E08AE02B
:101620000E94790962E08BE00E94790961E082E022
:101630000E94F30160E171E080E00E94B50968E07A
:1016400071E081E00E94B50960E071E082E00E94F3
:10165000B5090E94BE021092C4038091C903823072
:1016600008F050C18093C70362E370E080E090E02F
:101670000E9446026091CA038FEB93E00E9491049E
:1016800068EE73E080E090E00E94460260E38FEB3A
:1016900093E00E9470060BE416E4C8010197F1F78D
:1016A00060E38FEB93E00E947006C8010197F1F7A9
:1016B00060E38FEB93E00E94700683E592E0019770
:1016C000F1F760E28FEB93E00E9470066091C40333
:1016D000606240E08FEB93E00E94890684E0809393
:1016E000C50340E06CE08FEB93E00E9489060E9406
:1016F000A00682E08093C60340E066E08FEB93E0B3
:101700000E94890640E062E08FEB93E00E94890628
:101710008BE39FE10197F1F788E08093CA0360E0D3
:101720008FEB93E00E94910467E2A62E62E0B62E52
:10173000750110E000E0C8010E943E1490E0F7013E
:10174000918380836801C80101960E943E1490E055
:10175000F70193838283C80102960E943E1490E0B1
:10176000F70195838483FAE0CF0ED11C0D5F1F4FE4
:10177000C8010E943E14F501E00FF11F83830F5F43
:101780001F4F0C151D05A1F72DE0E20EF11C83E0A3
:10179000A80EB11C0035110571F657E1252E312C2C
:1017A000198227E030E0AE014F5F5F4FBA018091B0
:1017B0009E0290919F020E94200529812F77822FFF
:1017C00090E0F4E095958795FA95E1F7982F990FB9
:1017D000990FE82EE91AEE0CE20E2A81822F90E092
:1017E000A4E095958795AA95E1F7982F990F990F01
:1017F000F82EF91AFF0CF20E2B81822F90E0B4E044
:1018000095958795BA95E1F7982F990F990F082F1D
:10181000091B000F020F8D81282F30E014E0359551
:1018200027951A95E1F7922F990F990F122F191BEF
:10183000110F180F2E812F77822F90E034E09595AD
:1018400087953A95E1F7982F990F990FA82EA91A25
:10185000AA0CA20E2F81822F90E044E095958795E7
:101860004A95E1F7982F990F990FB82EB91ABB0C2A
:10187000B20ECB2CD12C60E080E00E94AB068FE74B
:1018800091E00E94130561E080E00E94AB060A30FF
:1018900020F48EE891E00E941305802F0E946906D3
:1018A0008AE30E940A0799E09F1520F08EE891E0F4
:1018B0000E9413058F2D0E9469068AE30E940A0781
:1018C000E9E0EE1520F08EE891E00E9413058E2DE0
:1018D0000E94690681E991E00E941305212F30E002
:1018E000E2ECF0E081E08A1588F49491290F311D33
:1018F0008F5F3196F8CF6AE070E080E090E00E9460
:101900004602F9CF98E09093C403ACCEF2E0FA150A
:1019100028F49B2D937011F42F5F3F4FC60103965F
:1019200096958795969587956DE671E0C69EA00180
:10193000C79E500DD69E500D11244B5F5F4F840FF4
:10194000951F820F931F67E070E00E94F714FC015F
:10195000EE0FFF1FEA5CFE4F80810E940A0781E9BB
:1019600091E00E94130581E189831A8222E030E030
:10197000AE014F5F5F4FBA0180919E0290919F022E
:101980000E9420056A8170E0E6E075956795EA950A
:10199000E1F7072E000C880B990B0E94451320E0FD
:1019A00030E040E85EE30E9480134B015C016981F6
:1019B00070E090E080E00E9443139B01AC01C50100
:1019C000B4010E9455140E94C114CB010E94130758
:1019D00080E991E00E94130580919C0290919D0204
:1019E0009C012B7F2230310509F077C060E08FEB3E
:1019F00093E00E94040780919C0290919D020196C1
:101A00008830910509F470C090939D0280939C02E8
:101A1000E7E2F2E010E08F2D90E0F12C208131819F
:101A20000217130759F4228133818217930731F487
:101A300024813581E216F30609F402C63D9622E0C0
:101A4000EF38F20759F729E1422E512C83E00E942A
:101A5000CA01892BC9F483E00E94CA01892BD9F3FA
:101A60000E94A0060DE710E00E94A804892B09F44B
:101A700040C00E94A804892BE1F78BE00E94CA01B4
:101A8000892B11F40E94DE0684E00E94CA01892B92
:101A900009F046C484E00E94CA01892BD9F30E9450
:101AA000A00660E080E00E94AB068DE991E00E9414
:101AB00013050DE710E00E94A804892B09F4CCC09F
:101AC0000E94A804892BE1F78BE00E94CA01892BB0
:101AD00009F026C40E94DE0623C4880F991F885E81
:101AE0009E4F0E94130587CF10929D0210929C0278
:101AF0008FCF66E070E080E090E00E9446020150E7
:101B0000110909F0B1CF60E080E00E94AB0683E9E3
:101B100091E00E94130504E610E00E94A8046C0105
:101B2000892B29F00E94A804892BE1F7A6CF6AE04F
:101B300070E080E090E00E9446020150110969F7D0
:101B40000E94A00607E212E00E94A8047C01892BF3
:101B500009F09ACF8BE00E94CA01892B09F492CF39
:101B60000E94A00660E080E00E94AB069FEFC91AC9
:101B7000D90AC6010E94130761E080E00E94AB060B
:101B8000F801808191818A3091053CF48EE891E0E2
:101B90000E941305F801808191810E9413078BE94F
:101BA00091E00E941305F801828193818A309105AA
:101BB0003CF48EE891E00E941305F8018281938144
:101BC0000E9413078BE991E00E941305F8018481BC
:101BD00095818A3091053CF48EE891E00E941305CE
:101BE000F801848195810E94130781E991E00E94A8
:101BF0001305F801EE0DFF1D8681813041F4F701D8
:101C0000EE0FFF1FEA5CFE4F80810E940A07FFEF84
:101C1000EF1AFF0A27E0E216F10459F784E6E82EEE
:101C2000F12C0E94A804892B29F00E94A804892B7A
:101C3000E1F723CF62E370E080E090E00E9446028B
:101C400081E0E81AF10869F7035F1F4F88E0C816C2
:101C5000D10409F405CF78CF66E070E080E090E031
:101C60000E9446020150110909F025CF0E94A006EA
:101C700010E000E0F02E60E0802F0E94AB060F5FC6
:101C80001F4FC8010E94130761E08F2D0E94AB0611
:101C900061E08FEB93E00E9404070830110551F7D3
:101CA000D12CC12C88E00E94CA01892B41F488E024
:101CB0000E94CA01892BD9F39FEFC91AD90A89E07A
:101CC0000E94CA01892B41F489E00E94CA01892B34
:101CD000D9F3E1E0CE1AD1088BE00E94CA01892B2A
:101CE00009F4F8CEF8E0CF16D10441F02FEFC21678
:101CF000D20631F4B7E0CB2ED12C02C0D12CC12CAE
:101D000010E000E061E0802F0E94AB06C016D10613
:101D100029F061E08FEB93E00E9404070F5F1F4FF3
:101D20000830110579F761E08C2D0E94AB0662E066
:101D30008FEB93E00E9404078AE00E94CA01892B7E
:101D400009F0BEC38DE08C9DF0018D9DF00D112436
:101D5000E95DFD4FA080B180B986A886E280F3805E
:101D6000FA82E982048115810E94A00660E080E089
:101D70000E94AB06C60101960E94130761E080E055
:101D80000E94AB069AE0A916B10424F48EE891E013
:101D90000E941305C5010E9413078BE991E00E9480
:101DA0001305EAE0EE16F10424F48EE891E00E94B7
:101DB0001305C7010E9413078BE991E00E941305E8
:101DC0000A30110524F48EE891E00E941305C80141
:101DD0000E941307F12CE12CE114F10409F03FC13A
:101DE00061E080E00E94AB0662E08FEB93E00E942E
:101DF000040761E081E00E94AB0662E08FEB93E0B4
:101E00000E940407A9E1AA2EB12C86E00E94CA0113
:101E1000892B51F486E00E94CA01892BD9F3888569
:101E2000998501969987888787E00E94CA01892B46
:101E300051F487E00E94CA01892BD9F388859985DE
:101E40000197998788878885998597FF02C0398689
:101E5000288688859985489714F0198618868BE01E
:101E60000E94CA017C01892B19F40E94DE066BC016
:101E70000E94A804892B09F0FCC362E170E080E0B5
:101E800090E00E944602F1E0AF1AB10809F0BDCF20
:101E900061E080E00E94AB06F9E18F2E912C5E019B
:101EA00028E0A20EB11CF501E080F180FAE0EF1607
:101EB000F10424F48EE891E00E941305C7010E940A
:101EC000130786E00E94CA01892B41F486E00E9434
:101ED000CA01892BD9F322E0A20EB11C87E00E942F
:101EE000CA01892B41F487E00E94CA01892BD9F3EA
:101EF00082E0A81AB108F5018081918197FF04C0A2
:101F000087E190E091838083F501808191814897FA
:101F100014F0118210828BE00E94CA017C01892B8F
:101F200009F4A3CF0E94A8047C01892B09F0A1C366
:101F300062E170E080E090E00E944602F1E08F1ADA
:101F4000910809F0B0CF8AE00E94CA015C01892B98
:101F500009F0DBC18AE00E94CA01892BD9F30E94F3
:101F6000A0066AEF70E080E090E00E94460286E3FF
:101F7000E82E81E0F82E912C60E0892D0E94AB06BE
:101F8000F70180810E940A0761E0892D0E94AB065B
:101F900061E08FEB93E00E9404079394F2E0EF0E70
:101FA000F11C28E09212E8CF8DE08C9DF0018D9D10
:101FB000F00D1124CF01835D9D4F7C01E95DFD4F44
:101FC000888599859183808389819A81938382838F
:101FD0001583048361E08A2D0E94AB06F70180819E
:101FE000811137C262E08FEB93E00E94040709E1A0
:101FF00010E00E94A804892B09F405C2F701808132
:10200000882309F458C262E08FEB93E00E94040732
:1020100089E00E94CA01892B41F489E00E94CA012B
:10202000892BD9F3F1E0AF1AB10888E00E94CA0108
:10203000892B41F488E00E94CA01892BD9F32FEF44
:10204000A21AB20A84E00E94CA01892B09F435C29F
:102050008BE00E94CA01892B09F0BCCF3BCD21E067
:10206000E216F10409F0AEC061E083E00E94AB0625
:1020700062E08FEB93E00E94040761E084E00E943D
:10208000AB0662E08FEB93E00E940407E9E1AE2E1D
:10209000B12C86E00E94CA01892B51F486E00E948F
:1020A000CA01892BD9F389819A8101969A83898300
:1020B00087E00E94CA01892B51F487E00E94CA017F
:1020C000892BD9F389819A8101979A8389838981A0
:1020D0009A8197FF02C03A82298289819A81489722
:1020E00014F01A8219828BE00E94CA01892B09F42C
:1020F000BCCE0E94A804892B09F025CF62E170E0D4
:1021000080E090E00E94460281E0A81AB10809F040
:10211000C0CF61E083E00E94AB0679E1672E712CAD
:10212000FE0131965F01F50180809180FAE08F1603
:10213000910424F48EE891E00E941305C4010E94EA
:10214000130786E00E94CA01892B41F486E00E94B1
:10215000CA01892BD9F322E0A20EB11C87E00E94AC
:10216000CA01892B41F487E00E94CA01892BD9F367
:1021700082E0A81AB108F5018081918197FF04C01F
:1021800087E190E091838083F50180819181489778
:1021900014F0118210828BE00E94CA01892B09F48D
:1021A00064CE0E94A804892B09F0CDCE62E170E0D4
:1021B00080E090E00E944602F1E06F1A710809F099
:1021C000B2CFC1CE22E0E216F10409F0BCCE61E04C
:1021D00086E00E94AB0662E08FEB93E00E9404076A
:1021E00061E087E00E94AB0662E08FEB93E00E9423
:1021F000040769E1A62EB12C86E00E94CA01892B52
:1022000039F486E00E94CA01892BD9F30F5F1F4F72
:1022100087E00E94CA01892B39F487E00E94CA0135
:10222000892BD9F30150110917FD0EC00831110592
:1022300074F48BE00E94CA01892B61F40E94DE06CF
:1022400032E0E32EF12C7FCE07E110E0F2CF10E078
:1022500000E0EFCF0E94A80452E0E52EF12C892B7C
:1022600009F071CE62E170E080E090E00E944602E9
:1022700081E0A81AB10809F0BFCF61E086E00E94B2
:10228000AB0649E1A42EB12C0A30110524F48EE8E6
:1022900091E00E941305C8010E94130786E00E9486
:1022A000CA01892B39F486E00E94CA01892BD9F32F
:1022B0000B5F1F4F87E00E94CA01892B09F0DCC128
:1022C00087E00E94CA01892BD9F30550110917FF35
:1022D00002C007E310E08BE00E94CA01892B09F4D9
:1022E000ADCF0E94A80422E0E22EF12C892B09F048
:1022F0002ACE62E170E080E090E00E94460291E028
:10230000A91AB10809F0C0CF1ECE83E00E94CA010D
:10231000892B09F047C083E00E94CA01892BD9F3B9
:1023200085E00E94CA01892BF1F485E00E94CA0170
:10233000892BD9F30E94A00660E080E00E94AB06E2
:102340008EEA91E00E9413050DE710E00E94A804B8
:10235000892B09F4C6C08BE00E94CA01892B09F0C1
:10236000BBC00E94DE068BE00E94CA01892B11F4DB
:102370000E94DE066AE070E080E090E00E94460283
:1023800081E0481A510809F061CB80E090E0892B88
:1023900009F406CA0E94FE00882309F401CA0E94BB
:1023A0000000FEC98BE00E94CA01892B09F492CB80
:1023B00089E00E94CA01892B41F489E00E94CA0188
:1023C000892BD9F3E1E0EE1AF10888E00E94CA01F6
:1023D000892B71F488E00E94CA01892BD9F3FFEFA1
:1023E000EF1AFF0A23E0E216F1040CF0F9CCF4CC6A
:1023F00083E0E816F1040CF0F3CC9FEFE916F90640
:1024000009F4E5CEE9CC8AE00E94CA01892B61F487
:102410008AE00E94CA01892BD9F381E0F7019081FB
:10242000911180E0F701808362E170E080E090E04C
:102430000E9446020150110909F0DBCD61E08FEBEB
:1024400093E00E940407F7018081882309F4E0CD1E
:10245000DACD813009F0DCCD61E08FEB93E00E94B2
:10246000040709E110E00E94A804892B09F0C6CDF9
:102470008AE00E94CA01892B61F48AE00E94CA01A5
:10248000892BD9F381E0F7019081911180E0F70168
:10249000808362E170E080E090E00E94460201509B
:1024A000110909F762E08FEB93E00E940407F7013E
:1024B00080818111ADCD61E0A7CD0E94790730CF39
:1024C00083E00E94CA01892B09F0ECCB83E00E94D3
:1024D000CA01892BD9F324CF0E94A804892BE1F7E4
:1024E00042CF66E070E080E090E00E94460201503A
:1024F000110909F02BCF0E94A00610E000E0F02E99
:1025000060E0802F0E94AB060F5F1F4FC8010E9442
:10251000130761E08F2D0E94AB0661E08FEB93E023
:102520000E9404070830110551F710E000E088E030
:102530000E94CA01892B39F488E00E94CA01892BC4
:10254000D9F30F5F1F4F89E00E94CA01892B39F42C
:1025500089E00E94CA01892BD9F3015011098BE04F
:102560000E94CA01892B09F4FCCE0830110531F014
:102570000F3F100729F407E010E002C010E000E070
:10258000F12CE12C61E08E2D0E94AB06E016F106E5
:1025900029F061E08FEB93E00E9404079FEFE91AB6
:1025A000F90AE8E0EE16F10469F761E0802F0E9475
:1025B000AB0662E08FEB93E00E9404078AE00E9482
:1025C000CA01892B09F0B3CF2DE0209FF001219F94
:1025D000F00D1124E95DFD4F1182108213821282E9
:1025E000158214821682178210861186128613862F
:1025F00014860E94A00660E080E00E94AB060E9464
:1026000079078CEB91E00E94130504E610E08BE063
:102610000E94CA01892B09F4A4CE0E94A804892B28
:1026200029F00E94A804892BE1F79DCE66E070E0B6
:1026300080E090E00E9446020150110941F793CEDC
:102640000E94A00660E080E00E94AB068BEC91E067
:102650000E94130561E08CE00E94F30168E57BE1D4
:1026600080E090E00E94460260E08CE00E94F3016E
:10267000EAC9F12CE12C67CC083311050CF42BCE00
:1026800010E000E028CEE89409C097FB3EF4909556
:102690008095709561957F4F8F4F9F4F9923A9F03B
:1026A000F92F96E9BB279395F695879577956795CA
:1026B000B795F111F8CFFAF4BB0F11F460FF1BC00E
:1026C0006F5F7F4F8F4F9F4F16C0882311F096E9A1
:1026D00011C0772321F09EE8872F762F05C066234F
:1026E00071F096E8862F70E060E02AF09A95660F08
:1026F000771F881FDAF7880F9695879597F90895C1
:102700000E9493130C9404140E94F61338F00E9454
:10271000FD1320F0952311F00C94ED130C94F3139A
:1027200011240C9438140E94151470F3959FC1F372
:10273000950F50E0551F629FF001729FBB27F00D6F
:10274000B11D639FAA27F00DB11DAA1F649F6627C4
:10275000B00DA11D661F829F2227B00DA11D621F13
:10276000739FB00DA11D621F839FA00D611D221FCD
:10277000749F3327A00D611D231F849F600D211DB1
:10278000822F762F6A2F11249F5750409AF0F1F034
:1027900088234AF0EE0FFF1FBB1F661F771F881F9D
:1027A00091505040A9F79E3F510580F00C94ED13D5
:1027B0000C9438145F3FE4F3983ED4F386957795F4
:1027C0006795B795F795E7959F5FC1F7FE2B880F43
:1027D000911D9695879597F9089597F99F6780E8D9
:1027E00070E060E008959FEF80EC089500240A9463
:1027F0001616170618060906089500240A941216DC
:102800001306140605060895092E0394000C11F40E
:10281000882352F0BB0F40F4BF2B11F460FF04C0BB
:102820006F5F7F4F8F4F9F4F089557FD9058440F14
:10283000551F59F05F3F71F04795880F97FB991F1F
:1028400061F09F3F79F087950895121613061406DC
:10285000551FF2CF4695F1DF08C016161706180669
:10286000991FF1CF86957105610508940895E89444
:10287000BB2766277727CB0197F90895F999FECFF3
:1028800092BD81BDF89A992780B50895262FF999B0
:10289000FECF1FBA92BD81BD20BD0FB6F894FA9A43
:1028A000F99A0FBE019608955058BB27AA270E9497
:1028B0006C140C9404140E94F61338F00E94FD135B
:1028C00020F039F49F3F19F426F40C94F3130EF41E
:1028D000E095E7FB0C94ED13E92F0E94151458F3D3
:1028E000BA17620773078407950720F079F4A6F5F5
:1028F0000C9437140EF4E0950B2EBA2FA02D0B017B
:10290000B90190010C01CA01A0011124FF27591B34
:1029100099F0593F50F4503E68F11A16F040A22F3A
:10292000232F342F4427585FF3CF469537952795AB
:10293000A795F0405395C9F77EF41F16BA0B620BAA
:10294000730B840BBAF09150A1F0FF0FBB1F661FF1
:10295000771F881FC2F70EC0BA0F621F731F841F34
:1029600048F4879577956795B795F7959E3F08F05A
:10297000B0CF9395880F08F09927EE0F979587951C
:1029800008950E94C8146894B1110C9438140895E5
:102990000E941D1488F09F5798F0B92F9927B751BE
:1029A000B0F0E1F0660F771F881F991F1AF0BA95F3
:1029B000C9F714C0B13091F00E943714B1E0089506
:1029C0000C943714672F782F8827B85F39F0B93FF8
:1029D000CCF3869577956795B395D9F73EF49095A6
:1029E0008095709561957F4F8F4F9F4F0895AA1BDB
:1029F000BB1B51E107C0AA1FBB1FA617B70710F0EA
:102A0000A61BB70B881F991F5A95A9F7809590951B
:102A1000BC01CD010895A1E21A2EAA1BBB1BFD012A
:102A20000DC0AA1FBB1FEE1FFF1FA217B307E407AD
:102A3000F50720F0A21BB30BE40BF50B661F771F05
:102A4000881F991F1A9469F76095709580959095E5
:102A50009B01AC01BD01CF010895EE0FFF1F059052
:102A6000F491E02D09940F931F93CF93DF9382305D
:102A7000910510F482E090E0E091CD03F091CE0357
:102A800030E020E0B0E0A0E0309799F42115310566
:102A900009F44AC0281B390B24303105D8F58A8146
:102AA0009B816115710589F1FB0193838283FE018E
:102AB00011C0408151810281138148175907E0F00C
:102AC0004817590799F4109761F012960C931297D2
:102AD00013961C933296CF01DF91CF911F910F91E6
:102AE00008950093CD031093CE03F4CF2115310543
:102AF00051F04217530738F0A901DB019A01BD01DB
:102B0000DF01F801C1CFEF01F9CF9093CE0380939D
:102B1000CD03CDCFFE01E20FF31F8193919322509D
:102B2000310939832883D7CF2091CB033091CC034F
:102B3000232B41F420912A0130912B013093CC03B7
:102B40002093CB03209128013091290121153105D3
:102B500041F42DB73EB740912C0150912D01241B1B
:102B6000350BE091CB03F091CC03E217F307A0F40F
:102B70002E1B3F0B2817390778F0AC014E5F5F4FD3
:102B80002417350748F04E0F5F1F5093CC03409336
:102B9000CB03819391939FCFF0E0E0E09CCFCF9364
:102BA000DF930097E9F0FC01329713821282A09123
:102BB000CD03B091CE03ED0130E020E01097A1F4F9
:102BC00020813181820F931F2091CB033091CC0360
:102BD0002817390709F061C0F093CC03E093CB03C9
:102BE000DF91CF910895EA01CE17DF07E8F54A811A
:102BF0005B819E0141155105B1F7E901FB83EA8331
:102C000049915991C40FD51FEC17FD0761F48081DC
:102C100091810296840F951FE901998388838281AF
:102C200093819B838A83F0E0E0E012968D919C91E2
:102C300013970097B9F52D913C911197CD0102960C
:102C4000820F931F2091CB033091CC0328173907B3
:102C500039F6309751F51092CE031092CD03B09310
:102C6000CC03A093CB03BCCFD383C28340815181DB
:102C7000840F951FC817D90761F44E5F5F4F888195
:102C80009981480F591F518340838A819B81938387
:102C900082832115310509F0B0CFF093CE03E09384
:102CA000CD039ECFFD01DC01C0CF13821282D7CFAE
:042CB000F894FFCFC6
:102CB4001F1F1F1F1F1F1F1F1F1111111111111F74
:102CC40000100804020100002F002D0000007C0009
:102CD4002F002D0000007C000000CF0380000000C6
:102CE40040001400540044004C006D004D004A00A4
:102CF400560053000000000034019400C10081011B
:102D0400F200D000E4000000000062043504A504D1
:102D14000B042E041B040C040000000004079400A0
:102D2400A5047802536F6E616E646F2E2E2E002000
:102D34002054696D6272652053616E626F003000C9
:102D4400432000416C61726D6173003A00496E6703
:102D5400726573617220616C61726D617300426FA0
:102D64007272617220616C61726D6100416C61729A
:102D74006D6120426F727261646100546F63616EB1
:0A2D8400646F2074696D62726500CF
:00000001FF
