:100000000C9463000C948B000C948B000C948B006C
:100010000C948B000C948B000C948B000C948B0034
:100020000C948B000C948B000C948B000C948B0024
:100030000C948B000C948B000C948B000C948B0014
:100040000C941A070C948B000C94E8060C94C206CE
:100050000C948B000C948B000C948B000C948B00F4
:100060000C9464070C948B0000000000240027000F
:100070002A0000000000250028002B0004040404CE
:100080000404040402020202020203030303030342
:10009000010204081020408001020408102001021F
:1000A00004081020000000080002010000030407FB
:1000B00000000000000000001F1C1F1E1F1E1F1F4D
:1000C0001E1F1E00BF0811241FBECFEFD8E0DEBFE9
:1000D000CDBF22E0A8E7B1E001C01D92A83FB20762
:1000E000E1F711E0A0E0B1E0E0EDFDE102C0059034
:1000F0000D92A837B107D9F710E0C3E6D0E004C0ED
:100100002197FE010E94BB0DC236D107C9F70E949C
:1001100007090C94E60E0C94000008950895AF9220
:10012000BF92CF92DF92EF92FF920F931F93CF93E4
:10013000DF936C017B018B01040F151FEB015E0146
:10014000AE18BF08C017D10759F06991D601ED91DB
:10015000FC910190F081E02DC6010995892B79F77A
:10016000C501DF91CF911F910F91FF90EF90DF902C
:10017000CF90BF90AF900895FC01538D448D252FF3
:1001800030E0842F90E0821B930B541710F0CF9631
:10019000089501970895FC01918D828D981761F063
:1001A000A28DAE0FBF2FB11D5D968C91928D9F5F7A
:1001B0009F73928F90E008958FEF9FEF0895FC0159
:1001C000918D828D981731F0828DE80FF11D858D0C
:1001D00090E008958FEF9FEF0895FC01918D228D9F
:1001E000892F90E0805C9F4F821B91098F73992724
:1001F00008958FE392E00E94ED0021E0892B09F43D
:1002000020E0822F089580E090E0892B29F00E9461
:10021000F90081110C9400000895FC01A48DA80F31
:10022000B92FB11DA35ABF4F2C91848D90E0019638
:100230008F739927848FA689B7892C93A089B18958
:100240008C91837080648C93938D848D981306C0F9
:100250000288F389E02D80818F7D80830895EF925D
:10026000FF920F931F93CF93DF93EC0181E0888F70
:100270009B8D8C8D98131AC0E889F989808185FF40
:1002800015C09FB7F894EE89FF896083E889F989E2
:1002900080818370806480839FBF81E090E0DF91E4
:1002A000CF911F910F91FF90EF900895F62E0B8D37
:1002B00010E00F5F1F4F0F731127E02E8C8D8E11F2
:1002C0000CC00FB607FCFACFE889F989808185FF59
:1002D000F5CFCE010E940D01F1CFEB8DEC0FFD2F7C
:1002E000F11DE35AFF4FF0829FB7F8940B8FEA8914
:1002F000FB8980818062CFCFCF93DF93EC01888D23
:100300008823B9F0AA89BB89E889F9898C9185FD90
:1003100003C0808186FD0DC00FB607FCF7CF8C911E
:1003200085FFF2CF808185FFEDCFCE010E940D01C8
:10033000E9CFDF91CF91089590E0FC01EC55FF4F9C
:100340002491FC01E057FF4F3491FC01E458FF4F2A
:10035000E491EE23C9F0222339F0233001F1A8F40F
:10036000213019F1223029F1F0E0EE0FFF1FEE5895
:10037000FF4FA591B4918FB7F894EC91611126C00D
:1003800030953E233C938FBF08952730A9F0283045
:10039000C9F0243049F7809180008F7D03C080919F
:1003A00080008F7780938000DFCF84B58F7784BD06
:1003B000DBCF84B58F7DFBCF8091B0008F778093AA
:1003C000B000D2CF8091B0008F7DF9CF3E2BDACF35
:1003D0003FB7F8948091C1019091C201A091C301EF
:1003E000B091C40126B5A89B05C02F3F19F0019616
:1003F000A11DB11D3FBFBA2FA92F982F8827BC017F
:10040000CD01620F711D811D911D42E0660F771FA6
:10041000881F991F4A95D1F708958F929F92AF92A6
:10042000BF92CF92DF92EF92FF924B015C010E944C
:10043000E8016B017C010E94E8016C197D098E09BD
:100440009F09683E734081059105A8F321E0821A57
:100450009108A108B10888EEC80E83E0D81EE11CFF
:10046000F11C81149104A104B10429F7FF90EF90CD
:10047000DF90CF90BF90AF909F908F900895089598
:1004800020919901260F3327331F21323105ECF4D7
:1004900020911502FC0190E080E0243069F082E0B8
:1004A0000895A09199012191AC0147585E4FA40F86
:1004B000B52FB11D2C930196861798F38091990161
:1004C000680F6093990180E0089581E0089510928B
:1004D000150281E0809314021092EF0161E082E145
:1004E0000E949C0161E083E10E949C01E9EBF0E045
:1004F00080818E7F808380818D7F808388E480935C
:10050000B80085E48093BC0008951092EE0110922B
:10051000ED0110921C0210923E020E9467028DE8CB
:1005200090E09093EC018093EB018EE890E0909343
:10053000EA018093E9010895CF93DF9391E09093CE
:1005400078018823B9F0C091B800D091BA008091A9
:10055000BC008A7B8093BC0060E082E10E949C0129
:1005600060E083E10E949C010E946702D093BA0080
:10057000C093B800DF91CF9108958F929F92AF9270
:10058000BF92CF92DF92EF92FF920F931F93CF9380
:10059000DF93D0913E02D13208F0D7C0182FC0911E
:1005A0003D020E94E8016B017C01809115028111DE
:1005B0006BC082E080931502109314028FEF80933A
:1005C000130210921202D0931102ADE1B2E0E1EFFA
:1005D000F1E080E0D81391C01092F0018091F00119
:1005E000CC0FC82BC093F0018091EF01813009F04E
:1005F00088C01092EF010E94E8016B017C0180919C
:10060000F0018093BB008091170290911802A09195
:100610001902B0911A02892B8A2B8B2BA1F00E9410
:10062000E8010091170210911802209119023091EF
:100630001A026C197D098E099F09061717072807EA
:10064000390708F442C08091BC0083FDD8CF85EC07
:100650008093BC000E94E8016B017C01809115022F
:10066000823009F450C0809113028F3F09F46FC0AB
:1006700080911302803209F46CC0809113028033A0
:1006800009F469C084E026C0809117029091180295
:10069000A0911902B0911A02892B8A2B8B2B09F495
:1006A00084CF0E94E8018090170290901802A090D9
:1006B0001902B0901A026C197D098E099F098616DD
:1006C0009706A806B90608F070CF809116020E941E
:1006D0009C0285E010921C0210923E0210921B02B6
:1006E000DF91CF911F910F91FF90EF90DF90CF900E
:1006F000BF90AF909F908F9008959D9191938F5F41
:1007000069CF85EEA5CF8091170290911802A09134
:100710001902B0911A02892B8A2B8B2B09F49ECFD8
:100720000E94E8010091170210911802209119020D
:1007300030911A026C197D098E099F090617170757
:100740002807390708F08ACFC0CF81E0C3CF80E007
:10075000C1CF82E0BFCF83E0BDCFCF93DF93EC0169
:100760008B818823A1F0888191E090931B02809374
:100770003D0210921C0210923E0281E00E94BD02D6
:1007800091E0811190E0892FDF91CF9108950E942F
:10079000850281E08B83CE010E94AD03982F8111E9
:1007A000E2CFF1CF0895E091EE018091ED01E817DD
:1007B00030F4F0E0E753FE4F808190E008958FEF32
:1007C0009FEF08959091EE018091ED012FEF3FEFA3
:1007D000981748F4E92FF0E0E753FE4F208130E00E
:1007E0009F5F9093EE01C90108958091ED01909172
:1007F000EE01891B990B0895CF92DF92EF92FF9241
:100800000F931F93CF93DF937C01CB018A0120913B
:100810001B02222389F0EB016B01C40ED51ECC15FF
:10082000DD0569F06991D701ED91FC910190F081AE
:10083000E02DC7010995F3CF642F0E944002C80143
:10084000DF91CF911F910F91FF90EF90DF90CF90AC
:100850000895CF93DF931F92CDB7DEB769832091C0
:100860001B022223F9F020913E02203258F021E0B1
:1008700030E0FC013383228390E080E00F90DF9131
:10088000CF91089580911C02E82FF0E0E35EFD4FC8
:10089000998190838F5F80931C0280933E0281E058
:1008A00090E0ECCF61E0CE0101960E944002F7CFCC
:1008B000FC01248131E030931B0220933D02109211
:1008C0001C0210923E028385682B8CED92E00E9400
:1008D000290481E00C94BD0290E080E008958F929D
:1008E0009F92AF92BF920F931F93CF93DF93CDB799
:1008F000DEB7A1970FB6F894DEBF0FBECDBF19A229
:10090000423008F44AE08E010F5D1F4F842E912C77
:10091000B12CA12CA50194010E94990DE62FB901DB
:10092000CA01EA3044F5E05DD801EE938D01232B36
:10093000242B252B79F790E080E0109769F0FD01DA
:1009400001900020E9F73197AF014A1B5B0BBD0115
:1009500088EE92E00E948F00A1960FB6F894DEBF59
:100960000FBECDBFDF91CF911F910F91BF90AF9080
:100970009F908F900895E95CD7CFFC0101900020F3
:10098000E9F73197AF01481B590BBC0188EE92E0A3
:100990000C948F002F923F924F925F926F927F92B2
:1009A0008F929F92AF92BF92CF92DF92EF92FF927F
:1009B0000F931F93CF93DF93DC011496ED91FC917D
:1009C000EF2B09F41CC159011A018C01FC01818132
:1009D0009281208131E030931B0220933D021092DE
:1009E0001C0210923E02DC01ED91FC910280F38129
:1009F000E02D41E050E00995019709F000C180E049
:100A00000E94BD028111FBC0D12CC12CF801848150
:100A100095817501EC18FD088E159F0508F47C0181
:100A2000D801DC910E94E8012B013C018091150264
:100A3000811173C0CE2DC13208F0C0E2B1E0B09395
:100A4000150221E0C5018E199F09C816D90608F4C0
:100A500020E020931402EFEFE093130210921202B1
:100A60008FEF8C0F80931102F1E0F093F0018091F1
:100A7000F001DD0FD82BD093F0018091EF01813090
:100A800009F08FC01092EF010E94E8012B013C0198
:100A90008091F0018093BB00809117029091180221
:100AA000A0911902B0911A02892B8A2B8B2BA1F0ED
:100AB0000E94E8012091170230911802409119021A
:100AC00050911A0264197509860997092617370784
:100AD0004807590708F442C08091BC0083FDD8CF75
:100AE00085EC8093BC000E94E8012B013C018091C1
:100AF0001502813009F459C0809112028C1710F44C
:100B0000C0911202A1EFB1E0E9ECF1E080E08C17B6
:100B100051F19D9191938F5FFACF8091170290913F
:100B20001802A0911902B0911A02892B8A2B8B2BE3
:100B300009F47CCF0E94E80120911702309118023D
:100B40004091190250911A02641975098609970992
:100B5000261737074807590708F068CF8091160213
:100B60000E949C02C0E01092EE01C093ED01CE15F0
:100B70001F0409F044C041018C0C9D1CE401CE010E
:100B8000881999098E159F0590F5F8018181928148
:100B9000DC01ED91FC910284F385E02D09958993A8
:100BA000EECFA5EEA093BC009ECF8091170290914E
:100BB0001802A0911902B0911A02892B8A2B8B2B53
:100BC00009F495CF0E94E801209117023091180294
:100BD0004091190250911A02641975098609970902
:100BE000261737074807590708F081CFB7CFCE0C33
:100BF000DF1CCA14DB0408F409CF81E001C080E0E7
:100C0000DF91CF911F910F91FF90EF90DF90CF90E8
:100C1000BF90AF909F908F907F906F905F904F901C
:100C20003F902F900895682F70E090E080E04AE0B8
:100C30000C946F040F931F93CF938C01C62F0E94C7
:100C400058046C2F6460C8010E9458046C2F6B7F9D
:100C5000C8010E94580483EC90E00197F1F7CF910E
:100C60001F910F9108950F931F93CF93DF938C01E2
:100C7000D62FC42F607F642B0E941A0680E1D89F74
:100C8000B00111246C2BC801DF91CF911F910F91FE
:100C90000C941A06CF93DF93CDB7DEB728970FB623
:100CA000F894DEBF0FBECDBF98E0EEE1F1E0DE01CB
:100CB000119601900D929A95E1F79091F002981794
:100CC00008F48FEF90E0880F991F21E030E02C0F9F
:100CD0003D1F820F931FFC016081606840E088EE39
:100CE00092E028960FB6F894DEBF0FBECDBFDF911D
:100CF000CF910C94330641E00E94330681E090E0EE
:100D0000089541E0682F88EE92E00E94330681E06A
:100D100090E0089585ED8093BC008091170290913A
:100D20001802A0911902B0911A020796A11DB11DD7
:100D300023E0B695A795979587952A95D1F72091A9
:100D4000BC0024FD03C010921502089540911702C3
:100D5000509118026091190270911A02452B462B8E
:100D6000472B69F30097A105B10541F025E32A95CA
:100D7000F1F700000197A109B109E1CF80911602B6
:100D80000C949C021F920F920FB60F9211242F9376
:100D90003F934F935F936F937F938F939F93AF9303
:100DA000BF93EF93FF938FE392E00E940D01FF91B9
:100DB000EF91BF91AF919F918F917F916F915F91D3
:100DC0004F913F912F910F900FBE0F901F9018954C
:100DD0001F920F920FB60F9211242F938F939F9310
:100DE000EF93FF93E0914F02F09150028081E091E8
:100DF0005502F091560282FD1BC0908180915802ED
:100E00008F5F8F7320915902821741F0E091580251
:100E1000F0E0E15CFD4F958F80935802FF91EF91D8
:100E20009F918F912F910F900FBE0F901F9018954B
:100E30008081F4CF1F920F920FB60F9211242F933F
:100E40003F938F939F93AF93BF938091BD019091F8
:100E5000BE01A091BF01B091C0013091BC0123E05F
:100E6000230F2D3758F50196A11DB11D2093BC010C
:100E70008093BD019093BE01A093BF01B093C001C8
:100E80008091C1019091C201A091C301B091C401B0
:100E90000196A11DB11D8093C1019093C201A09341
:100EA000C301B093C401BF91AF919F918F913F91C6
:100EB0002F910F900FBE0F901F90189526E8230FCB
:100EC0000296A11DB11DD2CF1F920F920FB60F92A5
:100ED00011242F933F934F935F936F937F938F933F
:100EE0009F93AF93BF93EF93FF938091B900887F57
:100EF000803609F44AC0F0F5883209F4A7C018F525
:100F0000803109F49BC0B8F4882309F4F9C0883013
:100F100009F494C0FF91EF91BF91AF919F918F9190
:100F20007F916F915F914F913F912F910F900FBEE5
:100F30000F901F901895883109F488C0803251F7BE
:100F40008093130214C0803409F49DC040F48033B0
:100F5000B9F38833F9F68093130285ECB0C080357D
:100F600009F485C0883509F496C0883499F60E9442
:100F70008A06D0CF883909F48CC038F5883729F033
:100F800050F4883611F0803729F683E080931502FB
:100F90001092BB0157C0883809F47BC0803919F022
:100FA000803809F0B7CF8091BB01803208F071C062
:100FB000E091BB0181E08E0F8093BB018091BB006B
:100FC000F0E0E556FE4F80833DC0803B39F0E0F411
:100FD000803A09F479C0883A09F09CCF84E0809384
:100FE000150210929A0110929901E091EB01F09193
:100FF000EC0109958091990181110FC081E08093E6
:1010000099011092790109C0803C09F4A6CF883C6F
:1010100009F4A3CF883B09F07DCFE0919A0181E0EC
:101020008E0F80939A01F0E0E758FE4F8081809305
:10103000BB0090919A018091990129C08091F001A3
:101040008093BB0085EC8093BC0064CF909112022A
:1010500080911102981758F5E091120281E08E0FED
:1010600080931202F0E0EF50FE4F8081E9CFE091D3
:10107000120281E08E0F809312028091BB00F0E09B
:10108000EF50FE4F808390911202809111029817C9
:10109000C8F285E8D8CFE091120281E08E0F8093EC
:1010A00012028091BB00F0E0EF50FE4F80838091F0
:1010B000140281115CCF81E08093EF0184EA809378
:1010C000BC001092150226CF85EC8093BC001092D4
:1010D00015028091BB01803230F4E091BB01F0E059
:1010E000E556FE4F10826091BB0170E0E091E9018E
:1010F000F091EA018BE991E009951092BB010ACFCA
:101100001092130234CFCF93DF9390E0FC01E057AD
:10111000FF4F249184589F4FFC0184918823C9F08C
:1011200090E0880F991FFC01E859FF4FA591B491F9
:10113000FC01EE58FF4FC591D49161110DC09FB7CE
:10114000F8948C91209582238C938881282328837E
:101150009FBFDF91CF910895623051F49FB7F8940B
:101160003C91822F809583238C93E8812E2BEFCFA7
:101170008FB7F894EC912E2B2C938FBFEACFEFE32F
:10118000F2E01382128288EE93E0A0E0B0E0848364
:101190009583A683B78328E331E03183208325EC50
:1011A00030E03587248724EC30E03787268720EC31
:1011B00030E0318B208B21EC30E0338B228B22EC22
:1011C00030E0358B248B26EC30E0378B268B118E6C
:1011D000128E138E148EECEDF2E013821282848351
:1011E0009583A683B7838AE491E091838083E8EEB8
:1011F000F2E0138212828CE591E09183808387E292
:10120000848380E1818782E0828713860895CF936B
:10121000DF9300D000D000D01F92CDB7DEB7789416
:1012200084B5826084BD84B5816084BD85B58260EB
:1012300085BD85B5816085BD80916E00816080939C
:101240006E00109281008091810082608093810005
:101250008091810081608093810080918000816015
:10126000809380008091B10084608093B100809170
:10127000B00081608093B00080917A008460809398
:101280007A0080917A00826080937A0080917A005F
:10129000816080937A0080917A00806880937A00E0
:1012A0001092C100E0914F02F091500282E08083E1
:1012B000E0914B02F0914C021082E0914D02F091CE
:1012C0004E028FEC808310925702E0915302F0910E
:1012D000540286E08083E0915102F09152028081B5
:1012E00080618083E0915102F09152028081886098
:1012F0008083E0915102F091520280818068808366
:10130000E0915102F091520280818F7D8083809123
:10131000C7019091C801009711F00E945D0E86E010
:1013200090E00E94C10D8C0188E6F80180838CED6D
:1013300092E092838183138280E290E0958384839C
:101340001093C8010093C7010E94850281E0F80153
:101350008383C8010E94AD03882309F483C161E03F
:1013600082E00E94830860E083E00E94830860E0DE
:1013700084E00E94830860E085E00E94830860E0CA
:1013800086E00E94830860E087E00E94830860E0B6
:1013900088E00E94830860E089E00E94830860E0A2
:1013A0008AE00E94830862E083E00E94830862E092
:1013B00084E00E94830862E085E00E94830862E086
:1013C00086E00E94830862E087E00E94830862E072
:1013D00088E00E94830862E089E00E94830862E05E
:1013E0008AE00E94830861E082E00E949C0140E064
:1013F00060E488EE92E00E94330600E011E0F8011C
:1014000061918F0188EE92E00E947B06F1E0083046
:101410001F07A9F70E9485021092ED028091F20247
:10142000823018F098E09093ED028093F00262E32E
:1014300070E080E090E00E940D026091F30288EE7F
:1014400092E00E94580468EE73E080E090E00E9411
:101450000D0260E388EE92E00E941A060BE416E4A7
:10146000C8010197F1F760E388EE92E00E941A0646
:10147000C8010197F1F760E388EE92E00E941A0636
:1014800083E592E00197F1F760E288EE92E00E9436
:101490001A066091ED02606240E088EE92E00E94E0
:1014A000330684E08093EE0240E06CE088EE92E048
:1014B0000E94330640E061E088EE92E00E9433062D
:1014C0000BE31FE1C8010197F1F782E08093EF027F
:1014D00040E066E088EE92E00E94330640E062E081
:1014E00088EE92E00E943306C8010197F1F788E088
:1014F0008093F30260E088EE92E00E94580480E05E
:101500000E944A0684E691E00E94BD045DE6E52E55
:10151000FF24F39461E1662E70E0C72E70E0D72EB1
:10152000198227E030E0AE014F5F5F4FBA01809132
:10153000C7019091C8010E94CA0429812F77822F88
:1015400090E0F4E095958795FA95E1F7982F990F3B
:10155000990F082F091B000F020F2A81822F90E09C
:10156000A4E095958795AA95E1F7982F990F990F83
:10157000B82EB91ABB0CB20E2B81822F90E0B4E0CA
:1015800095958795BA95E1F7982F990F990FA82E01
:10159000A91AAA0CA20E8D81282F30E014E03595EF
:1015A00027951A95E1F7922F990F990F122F191B72
:1015B000110F180F2E812F77822F90E034E0959530
:1015C00087953A95E1F7982F990F990F782E791A08
:1015D000770C720E2F81822F90E044E095958795CD
:1015E0004A95E1F7982F990F990F582E591A550CD3
:1015F000520E852C912C81E00E944A0689E08A15C2
:1016000020F083E791E00E94BD048A2D0E9413061A
:101610008AE30E948106E9E0EB1520F083E791E080
:101620000E94BD048B2D0E9413068AE30E9481064E
:101630000A3020F483E791E00E94BD04802F0E94CD
:10164000130686E791E00E94BD04212F30E0E8EB0D
:10165000F0E081E0871568F49491290F311D8F5FC8
:101660003196F8CF6AE070E080E090E00E940D02D1
:10167000F9CFF2E0F71528F4852D837011F42F5F70
:101680003F4FC401039696958795969587958E9CB6
:10169000A0018F9C500D9E9C500D11244B5F5F4FFD
:1016A000840F951F820F931F67E070E00E94850DE5
:1016B000FC01EE0FFF1FEA5DFE4F80810E94810654
:1016C00086E791E00E94BD0469821A8222E030E040
:1016D000AE014F5F5F4FBA018091C7019091C80181
:1016E0000E94CA046A8170E0E6E075956795EA9504
:1016F000E1F7072E000C880B990B0E94E90B20E004
:1017000030E040E85EE30E94240C4B015C016981FB
:1017100070E090E080E00E94E70B9B01AC01C50106
:10172000B4010E94E30C0E944F0D4B01770FAA08F1
:10173000BB084AE0C501B401B7FE0BC08DE20E94B0
:10174000810666277727CB01681979098A099B09E1
:101750004AE00E946F0485E791E00E94BD048091F9
:10176000C5019091C6019C012B7F2230310519F5EE
:1017700060E088EE92E00E947B068091C501909126
:10178000C601019688309105E9F09093C6018093D7
:10179000C5016AEF70E080E090E00E940D02C11484
:1017A000D10409F4BDCE0E94F900882309F4B8CE13
:1017B0000E940000B5CE880F991F885F9E4F0E943F
:1017C000BD04DBCF1092C6011092C501E2CFE894B0
:1017D00009C097FB3EF490958095709561957F4F79
:1017E0008F4F9F4F9923A9F0F92F96E9BB27939527
:1017F000F695879577956795B795F111F8CFFAF437
:10180000BB0F11F460FF1BC06F5F7F4F8F4F9F4F67
:1018100016C0882311F096E911C0772321F09EE8C5
:10182000872F762F05C0662371F096E8862F70E02B
:1018300060E02AF09A95660F771F881FDAF7880F05
:101840009695879597F908950E94370C0C94A80CEB
:101850000E949A0C38F00E94A10C20F0952311F000
:101860000C94910C0C94970C11240C94DC0C0E9499
:10187000B90C70F3959FC1F3950F50E0551F629F0F
:10188000F001729FBB27F00DB11D639FAA27F00DD9
:10189000B11DAA1F649F6627B00DA11D661F829F00
:1018A0002227B00DA11D621F739FB00DA11D621FE5
:1018B000839FA00D611D221F749F3327A00D611D02
:1018C000231F849F600D211D822F762F6A2F1124E4
:1018D0009F5750409AF0F1F088234AF0EE0FFF1F17
:1018E000BB1F661F771F881F91505040A9F79E3F6E
:1018F000510580F00C94910C0C94DC0C5F3FE4F3E8
:10190000983ED4F3869577956795B795F795E795C3
:101910009F5FC1F7FE2B880F911D9695879597F9CC
:10192000089597F99F6780E870E060E008959FEF61
:1019300080EC089500240A94161617061806090666
:10194000089500240A941216130614060506089535
:10195000092E0394000C11F4882352F0BB0F40F4BD
:10196000BF2B11F460FF04C06F5F7F4F8F4F9F4FFD
:10197000089557FD9058440F551F59F05F3F71F07F
:101980004795880F97FB991F61F09F3F79F08795E6
:101990000895121613061406551FF2CF4695F1DF6F
:1019A00008C0161617061806991FF1CF86957105FF
:1019B000610508940895E894BB2766277727CB0133
:1019C00097F908955058BB27AA270E94FA0C0C9447
:1019D000A80C0E949A0C38F00E94A10C20F039F457
:1019E0009F3F19F426F40C94970C0EF4E095E7FB56
:1019F0000C94910CE92F0E94B90C58F3BA176207A6
:101A000073078407950720F079F4A6F50C94DB0C96
:101A10000EF4E0950B2EBA2FA02D0B01B901900109
:101A20000C01CA01A0011124FF27591B99F0593F4D
:101A300050F4503E68F11A16F040A22F232F342F95
:101A40004427585FF3CF469537952795A795F040E3
:101A50005395C9F77EF41F16BA0B620B730B840BF8
:101A6000BAF09150A1F0FF0FBB1F661F771F881FB0
:101A7000C2F70EC0BA0F621F731F841F48F4879508
:101A800077956795B795F7959E3F08F0B0CF9395FA
:101A9000880F08F09927EE0F9795879508950E9473
:101AA000560D6894B1110C94DC0C08950E94C10C81
:101AB00088F09F5798F0B92F9927B751B0F0E1F00F
:101AC000660F771F881F991F1AF0BA95C9F714C0BF
:101AD000B13091F00E94DB0CB1E008950C94DB0C66
:101AE000672F782F8827B85F39F0B93FCCF38695F8
:101AF00077956795B395D9F73EF490958095709555
:101B000061957F4F8F4F9F4F0895AA1BBB1B51E1DB
:101B100007C0AA1FBB1FA617B70710F0A61BB70B5D
:101B2000881F991F5A95A9F780959095BC01CD0102
:101B30000895A1E21A2EAA1BBB1BFD010DC0AA1F0E
:101B4000BB1FEE1FFF1FA217B307E407F50720F026
:101B5000A21BB30BE40BF50B661F771F881F991FA1
:101B60001A9469F760957095809590959B01AC01EA
:101B7000BD01CF010895EE0FFF1F0590F491E02DF8
:101B800009940F931F93CF93DF938230910510F444
:101B900082E090E0E091F602F091F70230E020E080
:101BA000B0E0A0E0309799F42115310509F44AC05E
:101BB000281B390B24303105D8F58A819B816115AA
:101BC000710589F1FB0193838283FE0111C040817D
:101BD00051810281138148175907E0F048175907CE
:101BE00099F4109761F012960C93129713961C9328
:101BF0003296CF01DF91CF911F910F9108950093FD
:101C0000F6021093F702F4CF2115310551F0421777
:101C1000530738F0A901DB019A01BD01DF01F8018A
:101C2000C1CFEF01F9CF9093F7028093F602CDCFA9
:101C3000FE01E20FF31F8193919322503109398302
:101C40002883D7CF2091F4023091F502232B41F461
:101C500020911A0130911B013093F5022093F40278
:101C600020911801309119012115310541F42DB74A
:101C70003EB740911C0150911D01241B350BE09192
:101C8000F402F091F502E217F307A0F42E1B3F0BCC
:101C90002817390778F0AC014E5F5F4F24173507DE
:101CA00048F04E0F5F1F5093F5024093F40281936A
:101CB00091939FCFF0E0E0E09CCFCF93DF9300972C
:101CC000E9F0FC01329713821282A091F602B091E2
:101CD000F702ED0130E020E01097A1F4208131817E
:101CE000820F931F2091F4023091F50228173907D3
:101CF00009F061C0F093F502E093F402DF91CF9117
:101D00000895EA01CE17DF07E8F54A815B819E015D
:101D100041155105B1F7E901FB83EA8349915991D6
:101D2000C40FD51FEC17FD0761F4808191810296E5
:101D3000840F951FE90199838883828193819B8316
:101D40008A83F0E0E0E012968D919C9113970097C2
:101D5000B9F52D913C911197CD010296820F931FF9
:101D60002091F4023091F5022817390739F630979F
:101D700051F51092F7021092F602B093F502A0937B
:101D8000F402BCCFD383C28340815181840F951F5D
:101D9000C817D90761F44E5F5F4F88819981480F5A
:101DA000591F518340838A819B81938382832115AC
:101DB000310509F0B0CFF093F702E093F6029ECF21
:101DC000FD01DC01C0CF13821282D7CFF894FFCF80
:101DD00000100804020100002F002D0000007C000C
:101DE0002F002D0000007C000000F80280000000A1
:101DF00040001400540044004C006D004D004A00A7
:101E000056005300000000002F018F00BC007C0131
:101E1000ED00CB00DF00000000002904FC036C048F
:101E2000D203F503E203D303000000007B068F001A
:101E30006C043F022020416C61726D612053616E21
:081E4000626F00300043200036
:00000001FF
